{"abi":[{"type":"constructor","inputs":[{"name":"weth","type":"address","internalType":"address"},{"name":"feeReceiver","type":"address","internalType":"address"}],"stateMutability":"nonpayable"},{"type":"function","name":"DOMAIN_SEPARATOR","inputs":[],"outputs":[{"name":"","type":"bytes32","internalType":"bytes32"}],"stateMutability":"view"},{"type":"function","name":"PROTOCOL_FEE_BPS","inputs":[],"outputs":[{"name":"","type":"uint256","internalType":"uint256"}],"stateMutability":"view"},{"type":"function","name":"WETH","inputs":[],"outputs":[{"name":"","type":"address","internalType":"address"}],"stateMutability":"view"},{"type":"function","name":"isUserOrderNonceInvalid","inputs":[{"name":"user","type":"address","internalType":"address"},{"name":"nonce","type":"uint256","internalType":"uint256"}],"outputs":[{"name":"","type":"bool","internalType":"bool"}],"stateMutability":"view"},{"type":"function","name":"protocolFeeReceiver","inputs":[],"outputs":[{"name":"","type":"address","internalType":"address"}],"stateMutability":"view"},{"type":"function","name":"settle","inputs":[{"name":"fill","type":"tuple","internalType":"struct OrderActs.Fill","components":[{"name":"actor","type":"address","internalType":"address"},{"name":"tokenId","type":"uint256","internalType":"uint256"}]},{"name":"order","type":"tuple","internalType":"struct OrderActs.Order","components":[{"name":"side","type":"uint8","internalType":"enum OrderActs.Side"},{"name":"actor","type":"address","internalType":"address"},{"name":"isCollectionBid","type":"bool","internalType":"bool"},{"name":"collection","type":"address","internalType":"address"},{"name":"tokenId","type":"uint256","internalType":"uint256"},{"name":"price","type":"uint256","internalType":"uint256"},{"name":"currency","type":"address","internalType":"address"},{"name":"start","type":"uint64","internalType":"uint64"},{"name":"end","type":"uint64","internalType":"uint64"},{"name":"nonce","type":"uint256","internalType":"uint256"}]},{"name":"sig","type":"tuple","internalType":"struct SignatureOps.Signature","components":[{"name":"v","type":"uint8","internalType":"uint8"},{"name":"r","type":"bytes32","internalType":"bytes32"},{"name":"s","type":"bytes32","internalType":"bytes32"}]}],"outputs":[],"stateMutability":"payable"},{"type":"error","name":"ContractSignerUnsupported","inputs":[]},{"type":"error","name":"CurrencyNotWhitelisted","inputs":[]},{"type":"error","name":"InvalidNonce","inputs":[]},{"type":"error","name":"InvalidOrderSide","inputs":[]},{"type":"error","name":"InvalidSParameter","inputs":[]},{"type":"error","name":"InvalidSignature","inputs":[]},{"type":"error","name":"InvalidYParity","inputs":[]},{"type":"error","name":"OwnershipTransferFailed","inputs":[]},{"type":"error","name":"ReentrancyGuardReentrantCall","inputs":[]},{"type":"error","name":"SafeERC20FailedOperation","inputs":[{"name":"token","type":"address","internalType":"address"}]},{"type":"error","name":"UnauthorizedFillActor","inputs":[]},{"type":"error","name":"UnsupportedCollection","inputs":[]},{"type":"error","name":"ZeroActor","inputs":[]}],"bytecode":{"object":"0x60e0604052600160c090815250348015610017575f5ffd5b50604051611bab380380611bab833981810160405281019061003991906101fd565b600161005761004c61016d60201b60201c565b61019660201b60201c565b5f01819055507f8b73c3c69bb8fe3d512ecc4cf759cc79239f7b179b0ffacaa9a75d522b39400f7f997dc85543e54e3a10f066eed263ff8d0cbf9f87e862f32fce17b110cadc23f27f044852b2a670ade5407e78fb2863c51de9fcb96542a07186fe3aeda6bb8a116d46306040516020016100d6959493929190610316565b60405160208183030381529060405280519060200120608081815250508173ffffffffffffffffffffffffffffffffffffffff1660a08173ffffffffffffffffffffffffffffffffffffffff1681525050805f5f6101000a81548173ffffffffffffffffffffffffffffffffffffffff021916908373ffffffffffffffffffffffffffffffffffffffff1602179055505050610367565b5f7f9b779b17422d0df92223018b32b4d1fa46e071723d6817e2486d003becc55f005f1b905090565b5f819050919050565b5f5ffd5b5f73ffffffffffffffffffffffffffffffffffffffff82169050919050565b5f6101cc826101a3565b9050919050565b6101dc816101c2565b81146101e6575f5ffd5b50565b5f815190506101f7816101d3565b92915050565b5f5f604083850312156102135761021261019f565b5b5f610220858286016101e9565b9250506020610231858286016101e9565b9150509250929050565b5f819050919050565b5f819050919050565b5f819050919050565b5f61027061026b6102668461023b565b61024d565b610244565b9050919050565b61028081610256565b82525050565b5f819050919050565b5f6102a96102a461029f84610286565b61024d565b610244565b9050919050565b6102b98161028f565b82525050565b5f819050919050565b5f6102e26102dd6102d8846102bf565b61024d565b610244565b9050919050565b6102f2816102c8565b82525050565b61030181610244565b82525050565b610310816101c2565b82525050565b5f60a0820190506103295f830188610277565b61033660208301876102b0565b61034360408301866102e9565b61035060608301856102f8565b61035d6080830184610307565b9695505050505050565b60805160a05160c0516118056103a65f395f818161048f015261077f01525f818161046b015261061f01525f818161015a01526106b901526118055ff3fe608060405260043610610054575f3560e01c80633644e5151461005857806339a51be5146100825780633f9cb28e146100ac57806363fbb4d5146100c8578063ad5c464814610104578063be3782281461012e575b5f5ffd5b348015610063575f5ffd5b5061006c610158565b6040516100799190610e93565b60405180910390f35b34801561008d575f5ffd5b5061009661017c565b6040516100a39190610eeb565b60405180910390f35b6100c660048036038101906100c19190610f70565b6101a0565b005b3480156100d3575f5ffd5b506100ee60048036038101906100e9919061101f565b610407565b6040516100fb9190611077565b60405180910390f35b34801561010f575f5ffd5b50610118610469565b6040516101259190610eeb565b60405180910390f35b348015610139575f5ffd5b5061014261048d565b60405161014f919061109f565b60405180910390f35b7f000000000000000000000000000000000000000000000000000000000000000081565b5f5f9054906101000a900473ffffffffffffffffffffffffffffffffffffffff1681565b6101a86104b1565b825f0160208101906101ba91906110b8565b73ffffffffffffffffffffffffffffffffffffffff163373ffffffffffffffffffffffffffffffffffffffff161461021e576040517fc2b1dce200000000000000000000000000000000000000000000000000000000815260040160405180910390fd5b5f5f5f61022a846104d3565b92509250925061023c858484846104ff565b6001805f87602001602081019061025391906110b8565b73ffffffffffffffffffffffffffffffffffffffff1673ffffffffffffffffffffffffffffffffffffffff1681526020019081526020015f205f87610120013581526020019081526020015f205f6101000a81548160ff0219169083151502179055505f5f5f6102d2888036038101906102cd91906112ec565b610712565b1561030c578760200160208101906102ea91906110b8565b9250885f0160208101906102fe91906110b8565b9150876080013590506103b4565b6103258880360381019061032091906112ec565b610744565b1561038157885f01602081019061033c91906110b8565b925087602001602081019061035191906110b8565b91508760400160208101906103669190611318565b61037457876080013561037a565b88602001355b90506103b3565b6040517fea5ea9e200000000000000000000000000000000000000000000000000000000815260040160405180910390fd5b5b6103d68860c00160208101906103ca91906110b8565b83858b60a00135610776565b6103f48860600160208101906103ec91906110b8565b848484610845565b505050505050610402610a4b565b505050565b5f60015f8473ffffffffffffffffffffffffffffffffffffffff1673ffffffffffffffffffffffffffffffffffffffff1681526020019081526020015f205f8381526020019081526020015f205f9054906101000a900460ff16905092915050565b7f000000000000000000000000000000000000000000000000000000000000000081565b7f000000000000000000000000000000000000000000000000000000000000000081565b6104b9610a65565b60026104cb6104c6610aa6565b610acf565b5f0181905550565b5f5f5f835f0160208101906104e89190611379565b846020013585604001359250925092509193909250565b5f73ffffffffffffffffffffffffffffffffffffffff1684602001602081019061052991906110b8565b73ffffffffffffffffffffffffffffffffffffffff1603610576576040517fb1375a3d00000000000000000000000000000000000000000000000000000000815260040160405180910390fd5b60015f85602001602081019061058c91906110b8565b73ffffffffffffffffffffffffffffffffffffffff1673ffffffffffffffffffffffffffffffffffffffff1681526020019081526020015f205f85610120013581526020019081526020015f205f9054906101000a900460ff161561061d576040517f756688fe00000000000000000000000000000000000000000000000000000000815260040160405180910390fd5b7f000000000000000000000000000000000000000000000000000000000000000073ffffffffffffffffffffffffffffffffffffffff168460c001602081019061066791906110b8565b73ffffffffffffffffffffffffffffffffffffffff16146106b4576040517f5f6063cc00000000000000000000000000000000000000000000000000000000815260040160405180910390fd5b61070c7f00000000000000000000000000000000000000000000000000000000000000006106f1868036038101906106ec91906112ec565b610ad8565b86602001602081019061070491906110b8565b868686610b64565b50505050565b5f5f6001811115610726576107256113a4565b5b825f0151600181111561073c5761073b6113a4565b5b149050919050565b5f600180811115610758576107576113a4565b5b825f0151600181111561076e5761076d6113a4565b5b149050919050565b5f8190505f60647f0000000000000000000000000000000000000000000000000000000000000000846107a991906113fe565b6107b3919061146c565b9050610802855f5f9054906101000a900473ffffffffffffffffffffffffffffffffffffffff16838973ffffffffffffffffffffffffffffffffffffffff16610d42909392919063ffffffff16565b808261080e919061149c565b91505061083e8484838873ffffffffffffffffffffffffffffffffffffffff16610d42909392919063ffffffff16565b5050505050565b8373ffffffffffffffffffffffffffffffffffffffff166301ffc9a76380ac58cd60e01b6040518263ffffffff1660e01b81526004016108859190611509565b602060405180830381865afa1580156108a0573d5f5f3e3d5ffd5b505050506040513d601f19601f820116820180604052508101906108c49190611536565b6108fa576040517f0179a91700000000000000000000000000000000000000000000000000000000815260040160405180910390fd5b5f8490508073ffffffffffffffffffffffffffffffffffffffff166342842e0e8585856040518463ffffffff1660e01b815260040161093b93929190611561565b5f604051808303815f87803b158015610952575f5ffd5b505af1158015610964573d5f5f3e3d5ffd5b505050508273ffffffffffffffffffffffffffffffffffffffff168173ffffffffffffffffffffffffffffffffffffffff16636352211e846040518263ffffffff1660e01b81526004016109b8919061109f565b602060405180830381865afa1580156109d3573d5f5f3e3d5ffd5b505050506040513d601f19601f820116820180604052508101906109f791906115aa565b73ffffffffffffffffffffffffffffffffffffffff1614610a44576040517f65cca54900000000000000000000000000000000000000000000000000000000815260040160405180910390fd5b5050505050565b6001610a5d610a58610aa6565b610acf565b5f0181905550565b610a6d610d97565b15610aa4576040517f3ee5aeb500000000000000000000000000000000000000000000000000000000815260040160405180910390fd5b565b5f7f9b779b17422d0df92223018b32b4d1fa46e071723d6817e2486d003becc55f005f1b905090565b5f819050919050565b5f7f60ee8275a0ebcf68c310f721d23f781ff9ae32ac166c160ad7c7bc5f8902888082602001518360400151846060015185608001518660a001518760c00151885f01518960e001518a61010001518b6101200151604051602001610b479b9a9998979695949392919061162a565b604051602081830303815290604052805190602001209050919050565b5f8473ffffffffffffffffffffffffffffffffffffffff163b1115610bb5576040517faa1742fe00000000000000000000000000000000000000000000000000000000815260040160405180910390fd5b601b8360ff1614158015610bcd5750601c8360ff1614155b15610c04576040517f541b3bce00000000000000000000000000000000000000000000000000000000815260040160405180910390fd5b7f7fffffffffffffffffffffffffffffff5d576e7357a4501ddfe92f46681b20a0815f1c1115610c60576040517f0658eabd00000000000000000000000000000000000000000000000000000000815260040160405180910390fd5b5f8686604051602001610c74929190611747565b6040516020818303038152906040528051906020012090505f610c9982868686610db3565b90505f73ffffffffffffffffffffffffffffffffffffffff168173ffffffffffffffffffffffffffffffffffffffff161480610d0157508573ffffffffffffffffffffffffffffffffffffffff168173ffffffffffffffffffffffffffffffffffffffff1614155b15610d38576040517f8baa579f00000000000000000000000000000000000000000000000000000000815260040160405180910390fd5b5050505050505050565b610d50848484846001610e0a565b610d9157836040517f5274afe7000000000000000000000000000000000000000000000000000000008152600401610d889190610eeb565b60405180910390fd5b50505050565b5f6002610daa610da5610aa6565b610acf565b5f015414905090565b5f6001858585856040515f8152602001604052604051610dd6949392919061178c565b6020604051602081039080840390855afa158015610df6573d5f5f3e3d5ffd5b505050602060405103519050949350505050565b5f5f6323b872dd60e01b9050604051815f525f1960601c87166004525f1960601c86166024528460445260205f60645f5f8c5af1925060015f51148316610e68578383151615610e5c573d5f823e3d81fd5b5f883b113d1516831692505b806040525f606052505095945050505050565b5f819050919050565b610e8d81610e7b565b82525050565b5f602082019050610ea65f830184610e84565b92915050565b5f73ffffffffffffffffffffffffffffffffffffffff82169050919050565b5f610ed582610eac565b9050919050565b610ee581610ecb565b82525050565b5f602082019050610efe5f830184610edc565b92915050565b5f604051905090565b5f5ffd5b5f5ffd5b5f60408284031215610f2a57610f29610f11565b5b81905092915050565b5f6101408284031215610f4957610f48610f11565b5b81905092915050565b5f60608284031215610f6757610f66610f11565b5b81905092915050565b5f5f5f6101e08486031215610f8857610f87610f0d565b5b5f610f9586828701610f15565b9350506040610fa686828701610f33565b925050610180610fb886828701610f52565b9150509250925092565b610fcb81610ecb565b8114610fd5575f5ffd5b50565b5f81359050610fe681610fc2565b92915050565b5f819050919050565b610ffe81610fec565b8114611008575f5ffd5b50565b5f8135905061101981610ff5565b92915050565b5f5f6040838503121561103557611034610f0d565b5b5f61104285828601610fd8565b92505060206110538582860161100b565b9150509250929050565b5f8115159050919050565b6110718161105d565b82525050565b5f60208201905061108a5f830184611068565b92915050565b61109981610fec565b82525050565b5f6020820190506110b25f830184611090565b92915050565b5f602082840312156110cd576110cc610f0d565b5b5f6110da84828501610fd8565b91505092915050565b5f5ffd5b5f601f19601f8301169050919050565b7f4e487b71000000000000000000000000000000000000000000000000000000005f52604160045260245ffd5b61112d826110e7565b810181811067ffffffffffffffff8211171561114c5761114b6110f7565b5b80604052505050565b5f61115e610f04565b905061116a8282611124565b919050565b6002811061117b575f5ffd5b50565b5f8135905061118c8161116f565b92915050565b61119b8161105d565b81146111a5575f5ffd5b50565b5f813590506111b681611192565b92915050565b5f67ffffffffffffffff82169050919050565b6111d8816111bc565b81146111e2575f5ffd5b50565b5f813590506111f3816111cf565b92915050565b5f610140828403121561120f5761120e6110e3565b5b61121a610140611155565b90505f6112298482850161117e565b5f83015250602061123c84828501610fd8565b6020830152506040611250848285016111a8565b604083015250606061126484828501610fd8565b60608301525060806112788482850161100b565b60808301525060a061128c8482850161100b565b60a08301525060c06112a084828501610fd8565b60c08301525060e06112b4848285016111e5565b60e0830152506101006112c9848285016111e5565b610100830152506101206112df8482850161100b565b6101208301525092915050565b5f610140828403121561130257611301610f0d565b5b5f61130f848285016111f9565b91505092915050565b5f6020828403121561132d5761132c610f0d565b5b5f61133a848285016111a8565b91505092915050565b5f60ff82169050919050565b61135881611343565b8114611362575f5ffd5b50565b5f813590506113738161134f565b92915050565b5f6020828403121561138e5761138d610f0d565b5b5f61139b84828501611365565b91505092915050565b7f4e487b71000000000000000000000000000000000000000000000000000000005f52602160045260245ffd5b7f4e487b71000000000000000000000000000000000000000000000000000000005f52601160045260245ffd5b5f61140882610fec565b915061141383610fec565b925082820261142181610fec565b91508282048414831517611438576114376113d1565b5b5092915050565b7f4e487b71000000000000000000000000000000000000000000000000000000005f52601260045260245ffd5b5f61147682610fec565b915061148183610fec565b9250826114915761149061143f565b5b828204905092915050565b5f6114a682610fec565b91506114b183610fec565b92508282039050818111156114c9576114c86113d1565b5b92915050565b5f7fffffffff0000000000000000000000000000000000000000000000000000000082169050919050565b611503816114cf565b82525050565b5f60208201905061151c5f8301846114fa565b92915050565b5f8151905061153081611192565b92915050565b5f6020828403121561154b5761154a610f0d565b5b5f61155884828501611522565b91505092915050565b5f6060820190506115745f830186610edc565b6115816020830185610edc565b61158e6040830184611090565b949350505050565b5f815190506115a481610fc2565b92915050565b5f602082840312156115bf576115be610f0d565b5b5f6115cc84828501611596565b91505092915050565b600281106115e6576115e56113a4565b5b50565b5f8190506115f6826115d5565b919050565b5f611605826115e9565b9050919050565b611615816115fb565b82525050565b611624816111bc565b82525050565b5f6101608201905061163e5f83018e610e84565b61164b602083018d610edc565b611658604083018c611068565b611665606083018b610edc565b611672608083018a611090565b61167f60a0830189611090565b61168c60c0830188610edc565b61169960e083018761160c565b6116a761010083018661161b565b6116b561012083018561161b565b6116c3610140830184611090565b9c9b505050505050505050505050565b5f81905092915050565b7f19010000000000000000000000000000000000000000000000000000000000005f82015250565b5f6117116002836116d3565b915061171c826116dd565b600282019050919050565b5f819050919050565b61174161173c82610e7b565b611727565b82525050565b5f61175182611705565b915061175d8285611730565b60208201915061176d8284611730565b6020820191508190509392505050565b61178681611343565b82525050565b5f60808201905061179f5f830187610e84565b6117ac602083018661177d565b6117b96040830185610e84565b6117c66060830184610e84565b9594505050505056fea2646970667358221220bd5b33b2eaa9cf1eb5496e84f33846a8fcf0beedb0c52a317b4ed8edae1aee6364736f6c634300081e0033","linkReferences":{}},"methodIdentifiers":{"DOMAIN_SEPARATOR()":"3644e515","PROTOCOL_FEE_BPS()":"be378228","WETH()":"ad5c4648","isUserOrderNonceInvalid(address,uint256)":"63fbb4d5","protocolFeeReceiver()":"39a51be5","settle((address,uint256),(uint8,address,bool,address,uint256,uint256,address,uint64,uint64,uint256),(uint8,bytes32,bytes32))":"3f9cb28e"},"id":3}