{"abi":[{"type":"constructor","inputs":[],"stateMutability":"nonpayable"},{"type":"function","name":"DOMAIN_SEPARATOR","inputs":[],"outputs":[{"name":"","type":"bytes32","internalType":"bytes32"}],"stateMutability":"view"},{"type":"function","name":"WETH","inputs":[],"outputs":[{"name":"","type":"address","internalType":"address"}],"stateMutability":"view"},{"type":"function","name":"settle","inputs":[{"name":"fill","type":"tuple","internalType":"struct OrderActs.Fill","components":[{"name":"actor","type":"address","internalType":"address"},{"name":"tokenId","type":"uint256","internalType":"uint256"}]},{"name":"order","type":"tuple","internalType":"struct OrderActs.Order","components":[{"name":"side","type":"uint8","internalType":"enum OrderActs.Side"},{"name":"actor","type":"address","internalType":"address"},{"name":"isCollectionBid","type":"bool","internalType":"bool"},{"name":"collection","type":"address","internalType":"address"},{"name":"tokenId","type":"uint256","internalType":"uint256"},{"name":"price","type":"uint256","internalType":"uint256"},{"name":"currency","type":"address","internalType":"address"},{"name":"start","type":"uint64","internalType":"uint64"},{"name":"end","type":"uint64","internalType":"uint64"},{"name":"nonce","type":"uint256","internalType":"uint256"}]},{"name":"sig","type":"tuple","internalType":"struct SignatureOps.Signature","components":[{"name":"v","type":"uint8","internalType":"uint8"},{"name":"r","type":"bytes32","internalType":"bytes32"},{"name":"s","type":"bytes32","internalType":"bytes32"}]}],"outputs":[],"stateMutability":"payable"},{"type":"error","name":"ContractSignerUnsupported","inputs":[]},{"type":"error","name":"CurrencyNotWhitelisted","inputs":[]},{"type":"error","name":"InvalidNonce","inputs":[]},{"type":"error","name":"InvalidSParameter","inputs":[]},{"type":"error","name":"InvalidSignature","inputs":[]},{"type":"error","name":"InvalidYParity","inputs":[]},{"type":"error","name":"ReentrancyGuardReentrantCall","inputs":[]},{"type":"error","name":"UnauthorizedFillActor","inputs":[]},{"type":"error","name":"ZeroActor","inputs":[]}],"bytecode":{"object":"0x60c060405234801561000f575f5ffd5b50600161002e61002361011760201b60201c565b61014060201b60201c565b5f01819055507f8b73c3c69bb8fe3d512ecc4cf759cc79239f7b179b0ffacaa9a75d522b39400f7f997dc85543e54e3a10f066eed263ff8d0cbf9f87e862f32fce17b110cadc23f27f044852b2a670ade5407e78fb2863c51de9fcb96542a07186fe3aeda6bb8a116d46306040516020016100ad959493929190610254565b604051602081830303815290604052805190602001206080818152505073c02aaa39b223fe8d0a0e5c4f27ead9083c756cc273ffffffffffffffffffffffffffffffffffffffff1660a08173ffffffffffffffffffffffffffffffffffffffff16815250506102a5565b5f7f9b779b17422d0df92223018b32b4d1fa46e071723d6817e2486d003becc55f005f1b905090565b5f819050919050565b5f819050919050565b5f819050919050565b5f819050919050565b5f61017e61017961017484610149565b61015b565b610152565b9050919050565b61018e81610164565b82525050565b5f819050919050565b5f6101b76101b26101ad84610194565b61015b565b610152565b9050919050565b6101c78161019d565b82525050565b5f819050919050565b5f6101f06101eb6101e6846101cd565b61015b565b610152565b9050919050565b610200816101d6565b82525050565b61020f81610152565b82525050565b5f73ffffffffffffffffffffffffffffffffffffffff82169050919050565b5f61023e82610215565b9050919050565b61024e81610234565b82525050565b5f60a0820190506102675f830188610185565b61027460208301876101be565b61028160408301866101f7565b61028e6060830185610206565b61029b6080830184610245565b9695505050505050565b60805160a051610e506102d35f395f8181610179015261030801525f818160a901526103a20152610e505ff3fe608060405260043610610033575f3560e01c80633644e515146100375780633f9cb28e14610061578063ad5c46481461007d575b5f5ffd5b348015610042575f5ffd5b5061004b6100a7565b604051610058919061077d565b60405180910390f35b61007b60048036038101906100769190610802565b6100cb565b005b348015610088575f5ffd5b50610091610177565b60405161009e9190610893565b60405180910390f35b7f000000000000000000000000000000000000000000000000000000000000000081565b6100d361019b565b825f0160208101906100e591906108d6565b73ffffffffffffffffffffffffffffffffffffffff163373ffffffffffffffffffffffffffffffffffffffff1614610149576040517fc2b1dce200000000000000000000000000000000000000000000000000000000815260040160405180910390fd5b5f5f5f610155846101bd565b925092509250610167858484846101e9565b5050506101726103fb565b505050565b7f000000000000000000000000000000000000000000000000000000000000000081565b6101a3610415565b60026101b56101b0610456565b61047f565b5f0181905550565b5f5f5f835f0160208101906101d29190610937565b846020013585604001359250925092509193909250565b5f73ffffffffffffffffffffffffffffffffffffffff1684602001602081019061021391906108d6565b73ffffffffffffffffffffffffffffffffffffffff1603610260576040517fb1375a3d00000000000000000000000000000000000000000000000000000000815260040160405180910390fd5b5f5f85602001602081019061027591906108d6565b73ffffffffffffffffffffffffffffffffffffffff1673ffffffffffffffffffffffffffffffffffffffff1681526020019081526020015f205f85610120013581526020019081526020015f205f9054906101000a900460ff1615610306576040517f756688fe00000000000000000000000000000000000000000000000000000000815260040160405180910390fd5b7f000000000000000000000000000000000000000000000000000000000000000073ffffffffffffffffffffffffffffffffffffffff168460c001602081019061035091906108d6565b73ffffffffffffffffffffffffffffffffffffffff161461039d576040517f5f6063cc00000000000000000000000000000000000000000000000000000000815260040160405180910390fd5b6103f57f00000000000000000000000000000000000000000000000000000000000000006103da868036038101906103d59190610ba9565b610488565b8660200160208101906103ed91906108d6565b868686610514565b50505050565b600161040d610408610456565b61047f565b5f0181905550565b61041d6106f2565b15610454576040517f3ee5aeb500000000000000000000000000000000000000000000000000000000815260040160405180910390fd5b565b5f7f9b779b17422d0df92223018b32b4d1fa46e071723d6817e2486d003becc55f005f1b905090565b5f819050919050565b5f7f60ee8275a0ebcf68c310f721d23f781ff9ae32ac166c160ad7c7bc5f8902888082602001518360400151846060015185608001518660a001518760c00151885f01518960e001518a61010001518b61012001516040516020016104f79b9a99989796959493929190610c75565b604051602081830303815290604052805190602001209050919050565b5f8473ffffffffffffffffffffffffffffffffffffffff163b1115610565576040517faa1742fe00000000000000000000000000000000000000000000000000000000815260040160405180910390fd5b601b8360ff161415801561057d5750601c8360ff1614155b156105b4576040517f541b3bce00000000000000000000000000000000000000000000000000000000815260040160405180910390fd5b7f7fffffffffffffffffffffffffffffff5d576e7357a4501ddfe92f46681b20a0815f1c1115610610576040517f0658eabd00000000000000000000000000000000000000000000000000000000815260040160405180910390fd5b5f8686604051602001610624929190610d92565b6040516020818303038152906040528051906020012090505f6106498286868661070e565b90505f73ffffffffffffffffffffffffffffffffffffffff168173ffffffffffffffffffffffffffffffffffffffff1614806106b157508573ffffffffffffffffffffffffffffffffffffffff168173ffffffffffffffffffffffffffffffffffffffff1614155b156106e8576040517f8baa579f00000000000000000000000000000000000000000000000000000000815260040160405180910390fd5b5050505050505050565b5f6002610705610700610456565b61047f565b5f015414905090565b5f6001858585856040515f81526020016040526040516107319493929190610dd7565b6020604051602081039080840390855afa158015610751573d5f5f3e3d5ffd5b505050602060405103519050949350505050565b5f819050919050565b61077781610765565b82525050565b5f6020820190506107905f83018461076e565b92915050565b5f604051905090565b5f5ffd5b5f5ffd5b5f604082840312156107bc576107bb6107a3565b5b81905092915050565b5f61014082840312156107db576107da6107a3565b5b81905092915050565b5f606082840312156107f9576107f86107a3565b5b81905092915050565b5f5f5f6101e0848603121561081a5761081961079f565b5b5f610827868287016107a7565b9350506040610838868287016107c5565b92505061018061084a868287016107e4565b9150509250925092565b5f73ffffffffffffffffffffffffffffffffffffffff82169050919050565b5f61087d82610854565b9050919050565b61088d81610873565b82525050565b5f6020820190506108a65f830184610884565b92915050565b6108b581610873565b81146108bf575f5ffd5b50565b5f813590506108d0816108ac565b92915050565b5f602082840312156108eb576108ea61079f565b5b5f6108f8848285016108c2565b91505092915050565b5f60ff82169050919050565b61091681610901565b8114610920575f5ffd5b50565b5f813590506109318161090d565b92915050565b5f6020828403121561094c5761094b61079f565b5b5f61095984828501610923565b91505092915050565b5f5ffd5b5f601f19601f8301169050919050565b7f4e487b71000000000000000000000000000000000000000000000000000000005f52604160045260245ffd5b6109ac82610966565b810181811067ffffffffffffffff821117156109cb576109ca610976565b5b80604052505050565b5f6109dd610796565b90506109e982826109a3565b919050565b600281106109fa575f5ffd5b50565b5f81359050610a0b816109ee565b92915050565b5f8115159050919050565b610a2581610a11565b8114610a2f575f5ffd5b50565b5f81359050610a4081610a1c565b92915050565b5f819050919050565b610a5881610a46565b8114610a62575f5ffd5b50565b5f81359050610a7381610a4f565b92915050565b5f67ffffffffffffffff82169050919050565b610a9581610a79565b8114610a9f575f5ffd5b50565b5f81359050610ab081610a8c565b92915050565b5f6101408284031215610acc57610acb610962565b5b610ad76101406109d4565b90505f610ae6848285016109fd565b5f830152506020610af9848285016108c2565b6020830152506040610b0d84828501610a32565b6040830152506060610b21848285016108c2565b6060830152506080610b3584828501610a65565b60808301525060a0610b4984828501610a65565b60a08301525060c0610b5d848285016108c2565b60c08301525060e0610b7184828501610aa2565b60e083015250610100610b8684828501610aa2565b61010083015250610120610b9c84828501610a65565b6101208301525092915050565b5f6101408284031215610bbf57610bbe61079f565b5b5f610bcc84828501610ab6565b91505092915050565b610bde81610a11565b82525050565b610bed81610a46565b82525050565b7f4e487b71000000000000000000000000000000000000000000000000000000005f52602160045260245ffd5b60028110610c3157610c30610bf3565b5b50565b5f819050610c4182610c20565b919050565b5f610c5082610c34565b9050919050565b610c6081610c46565b82525050565b610c6f81610a79565b82525050565b5f61016082019050610c895f83018e61076e565b610c96602083018d610884565b610ca3604083018c610bd5565b610cb0606083018b610884565b610cbd608083018a610be4565b610cca60a0830189610be4565b610cd760c0830188610884565b610ce460e0830187610c57565b610cf2610100830186610c66565b610d00610120830185610c66565b610d0e610140830184610be4565b9c9b505050505050505050505050565b5f81905092915050565b7f19010000000000000000000000000000000000000000000000000000000000005f82015250565b5f610d5c600283610d1e565b9150610d6782610d28565b600282019050919050565b5f819050919050565b610d8c610d8782610765565b610d72565b82525050565b5f610d9c82610d50565b9150610da88285610d7b565b602082019150610db88284610d7b565b6020820191508190509392505050565b610dd181610901565b82525050565b5f608082019050610dea5f83018761076e565b610df76020830186610dc8565b610e04604083018561076e565b610e11606083018461076e565b9594505050505056fea2646970667358221220e3b670b5e72e7706e79a7d4066c5012b3ac5ff739bd5ceda63bcc29a066398cd64736f6c634300081e0033","linkReferences":{}},"methodIdentifiers":{"DOMAIN_SEPARATOR()":"3644e515","WETH()":"ad5c4648","settle((address,uint256),(uint8,address,bool,address,uint256,uint256,address,uint64,uint64,uint256),(uint8,bytes32,bytes32))":"3f9cb28e"},"id":2}