{"abi":[{"type":"constructor","inputs":[{"name":"weth","type":"address","internalType":"address"},{"name":"feeReceiver","type":"address","internalType":"address"}],"stateMutability":"nonpayable"},{"type":"function","name":"DOMAIN_SEPARATOR","inputs":[],"outputs":[{"name":"","type":"bytes32","internalType":"bytes32"}],"stateMutability":"view"},{"type":"function","name":"PROTOCOL_FEE_BPS","inputs":[],"outputs":[{"name":"","type":"uint256","internalType":"uint256"}],"stateMutability":"view"},{"type":"function","name":"WETH","inputs":[],"outputs":[{"name":"","type":"address","internalType":"address"}],"stateMutability":"view"},{"type":"function","name":"isUserOrderNonceInvalid","inputs":[{"name":"user","type":"address","internalType":"address"},{"name":"nonce","type":"uint256","internalType":"uint256"}],"outputs":[{"name":"","type":"bool","internalType":"bool"}],"stateMutability":"view"},{"type":"function","name":"protocolFeeReceiver","inputs":[],"outputs":[{"name":"","type":"address","internalType":"address"}],"stateMutability":"view"},{"type":"function","name":"settle","inputs":[{"name":"fill","type":"tuple","internalType":"struct OrderActs.Fill","components":[{"name":"actor","type":"address","internalType":"address"},{"name":"tokenId","type":"uint256","internalType":"uint256"}]},{"name":"order","type":"tuple","internalType":"struct OrderActs.Order","components":[{"name":"side","type":"uint8","internalType":"enum OrderActs.Side"},{"name":"actor","type":"address","internalType":"address"},{"name":"isCollectionBid","type":"bool","internalType":"bool"},{"name":"collection","type":"address","internalType":"address"},{"name":"tokenId","type":"uint256","internalType":"uint256"},{"name":"price","type":"uint256","internalType":"uint256"},{"name":"currency","type":"address","internalType":"address"},{"name":"start","type":"uint64","internalType":"uint64"},{"name":"end","type":"uint64","internalType":"uint64"},{"name":"nonce","type":"uint256","internalType":"uint256"}]},{"name":"sig","type":"tuple","internalType":"struct SignatureOps.Signature","components":[{"name":"v","type":"uint8","internalType":"uint8"},{"name":"r","type":"bytes32","internalType":"bytes32"},{"name":"s","type":"bytes32","internalType":"bytes32"}]}],"outputs":[],"stateMutability":"payable"},{"type":"error","name":"ContractSignerUnsupported","inputs":[]},{"type":"error","name":"CurrencyNotWhitelisted","inputs":[]},{"type":"error","name":"InvalidNonce","inputs":[]},{"type":"error","name":"InvalidOrderSide","inputs":[]},{"type":"error","name":"InvalidSParameter","inputs":[]},{"type":"error","name":"InvalidSignature","inputs":[]},{"type":"error","name":"InvalidYParity","inputs":[]},{"type":"error","name":"ReentrancyGuardReentrantCall","inputs":[]},{"type":"error","name":"SafeERC20FailedOperation","inputs":[{"name":"token","type":"address","internalType":"address"}]},{"type":"error","name":"UnauthorizedFillActor","inputs":[]},{"type":"error","name":"UnsupportedCollection","inputs":[]},{"type":"error","name":"ZeroActor","inputs":[]}],"bytecode":{"object":"0x60e0604052600160c090815250348015610017575f5ffd5b50604051611a8c380380611a8c833981810160405281019061003991906101fd565b600161005761004c61016d60201b60201c565b61019660201b60201c565b5f01819055507f8b73c3c69bb8fe3d512ecc4cf759cc79239f7b179b0ffacaa9a75d522b39400f7f997dc85543e54e3a10f066eed263ff8d0cbf9f87e862f32fce17b110cadc23f27f044852b2a670ade5407e78fb2863c51de9fcb96542a07186fe3aeda6bb8a116d46306040516020016100d6959493929190610316565b60405160208183030381529060405280519060200120608081815250508173ffffffffffffffffffffffffffffffffffffffff1660a08173ffffffffffffffffffffffffffffffffffffffff1681525050805f5f6101000a81548173ffffffffffffffffffffffffffffffffffffffff021916908373ffffffffffffffffffffffffffffffffffffffff1602179055505050610367565b5f7f9b779b17422d0df92223018b32b4d1fa46e071723d6817e2486d003becc55f005f1b905090565b5f819050919050565b5f5ffd5b5f73ffffffffffffffffffffffffffffffffffffffff82169050919050565b5f6101cc826101a3565b9050919050565b6101dc816101c2565b81146101e6575f5ffd5b50565b5f815190506101f7816101d3565b92915050565b5f5f604083850312156102135761021261019f565b5b5f610220858286016101e9565b9250506020610231858286016101e9565b9150509250929050565b5f819050919050565b5f819050919050565b5f819050919050565b5f61027061026b6102668461023b565b61024d565b610244565b9050919050565b61028081610256565b82525050565b5f819050919050565b5f6102a96102a461029f84610286565b61024d565b610244565b9050919050565b6102b98161028f565b82525050565b5f819050919050565b5f6102e26102dd6102d8846102bf565b61024d565b610244565b9050919050565b6102f2816102c8565b82525050565b61030181610244565b82525050565b610310816101c2565b82525050565b5f60a0820190506103295f830188610277565b61033660208301876102b0565b61034360408301866102e9565b61035060608301856102f8565b61035d6080830184610307565b9695505050505050565b60805160a05160c0516116e66103a65f395f818161048f015261078001525f818161046b015261061f01525f818161015a01526106b901526116e65ff3fe608060405260043610610054575f3560e01c80633644e5151461005857806339a51be5146100825780633f9cb28e146100ac57806363fbb4d5146100c8578063ad5c464814610104578063be3782281461012e575b5f5ffd5b348015610063575f5ffd5b5061006c610158565b6040516100799190610db3565b60405180910390f35b34801561008d575f5ffd5b5061009661017c565b6040516100a39190610e0b565b60405180910390f35b6100c660048036038101906100c19190610e90565b6101a0565b005b3480156100d3575f5ffd5b506100ee60048036038101906100e99190610f3f565b610407565b6040516100fb9190610f97565b60405180910390f35b34801561010f575f5ffd5b50610118610469565b6040516101259190610e0b565b60405180910390f35b348015610139575f5ffd5b5061014261048d565b60405161014f9190610fbf565b60405180910390f35b7f000000000000000000000000000000000000000000000000000000000000000081565b5f5f9054906101000a900473ffffffffffffffffffffffffffffffffffffffff1681565b6101a86104b1565b825f0160208101906101ba9190610fd8565b73ffffffffffffffffffffffffffffffffffffffff163373ffffffffffffffffffffffffffffffffffffffff161461021e576040517fc2b1dce200000000000000000000000000000000000000000000000000000000815260040160405180910390fd5b5f5f5f61022a846104d3565b92509250925061023c858484846104ff565b6001805f8760200160208101906102539190610fd8565b73ffffffffffffffffffffffffffffffffffffffff1673ffffffffffffffffffffffffffffffffffffffff1681526020019081526020015f205f87610120013581526020019081526020015f205f6101000a81548160ff0219169083151502179055505f5f5f6102d2888036038101906102cd919061120c565b610712565b1561030c578760200160208101906102ea9190610fd8565b9250885f0160208101906102fe9190610fd8565b9150876080013590506103b4565b61032588803603810190610320919061120c565b610744565b1561038157885f01602081019061033c9190610fd8565b92508760200160208101906103519190610fd8565b91508760400160208101906103669190611238565b61037457876080013561037a565b88602001355b90506103b3565b6040517fea5ea9e200000000000000000000000000000000000000000000000000000000815260040160405180910390fd5b5b6103d68860c00160208101906103ca9190610fd8565b83858b60a00135610777565b6103f48860600160208101906103ec9190610fd8565b848484610846565b50505050505061040261096b565b505050565b5f60015f8473ffffffffffffffffffffffffffffffffffffffff1673ffffffffffffffffffffffffffffffffffffffff1681526020019081526020015f205f8381526020019081526020015f205f9054906101000a900460ff16905092915050565b7f000000000000000000000000000000000000000000000000000000000000000081565b7f000000000000000000000000000000000000000000000000000000000000000081565b6104b9610985565b60026104cb6104c66109c6565b6109ef565b5f0181905550565b5f5f5f835f0160208101906104e89190611299565b846020013585604001359250925092509193909250565b5f73ffffffffffffffffffffffffffffffffffffffff168460200160208101906105299190610fd8565b73ffffffffffffffffffffffffffffffffffffffff1603610576576040517fb1375a3d00000000000000000000000000000000000000000000000000000000815260040160405180910390fd5b60015f85602001602081019061058c9190610fd8565b73ffffffffffffffffffffffffffffffffffffffff1673ffffffffffffffffffffffffffffffffffffffff1681526020019081526020015f205f85610120013581526020019081526020015f205f9054906101000a900460ff161561061d576040517f756688fe00000000000000000000000000000000000000000000000000000000815260040160405180910390fd5b7f000000000000000000000000000000000000000000000000000000000000000073ffffffffffffffffffffffffffffffffffffffff168460c00160208101906106679190610fd8565b73ffffffffffffffffffffffffffffffffffffffff16146106b4576040517f5f6063cc00000000000000000000000000000000000000000000000000000000815260040160405180910390fd5b61070c7f00000000000000000000000000000000000000000000000000000000000000006106f1868036038101906106ec919061120c565b6109f8565b8660200160208101906107049190610fd8565b868686610a84565b50505050565b5f5f6002811115610726576107256112c4565b5b825f0151600281111561073c5761073b6112c4565b5b149050919050565b5f60016002811115610759576107586112c4565b5b825f0151600281111561076f5761076e6112c4565b5b149050919050565b5f8190505f60647f0000000000000000000000000000000000000000000000000000000000000000846107aa919061131e565b6107b4919061138c565b9050610803855f5f9054906101000a900473ffffffffffffffffffffffffffffffffffffffff16838973ffffffffffffffffffffffffffffffffffffffff16610c62909392919063ffffffff16565b808261080f91906113bc565b91505061083f8484838873ffffffffffffffffffffffffffffffffffffffff16610c62909392919063ffffffff16565b5050505050565b8373ffffffffffffffffffffffffffffffffffffffff166301ffc9a76380ac58cd60e01b6040518263ffffffff1660e01b81526004016108869190611429565b602060405180830381865afa1580156108a1573d5f5f3e3d5ffd5b505050506040513d601f19601f820116820180604052508101906108c59190611456565b6108fb576040517f0179a91700000000000000000000000000000000000000000000000000000000815260040160405180910390fd5b8373ffffffffffffffffffffffffffffffffffffffff166342842e0e8484846040518463ffffffff1660e01b815260040161093893929190611481565b5f604051808303815f87803b15801561094f575f5ffd5b505af1158015610961573d5f5f3e3d5ffd5b5050505050505050565b600161097d6109786109c6565b6109ef565b5f0181905550565b61098d610cb7565b156109c4576040517f3ee5aeb500000000000000000000000000000000000000000000000000000000815260040160405180910390fd5b565b5f7f9b779b17422d0df92223018b32b4d1fa46e071723d6817e2486d003becc55f005f1b905090565b5f819050919050565b5f7f60ee8275a0ebcf68c310f721d23f781ff9ae32ac166c160ad7c7bc5f8902888082602001518360400151846060015185608001518660a001518760c00151885f01518960e001518a61010001518b6101200151604051602001610a679b9a9998979695949392919061150b565b604051602081830303815290604052805190602001209050919050565b5f8473ffffffffffffffffffffffffffffffffffffffff163b1115610ad5576040517faa1742fe00000000000000000000000000000000000000000000000000000000815260040160405180910390fd5b601b8360ff1614158015610aed5750601c8360ff1614155b15610b24576040517f541b3bce00000000000000000000000000000000000000000000000000000000815260040160405180910390fd5b7f7fffffffffffffffffffffffffffffff5d576e7357a4501ddfe92f46681b20a0815f1c1115610b80576040517f0658eabd00000000000000000000000000000000000000000000000000000000815260040160405180910390fd5b5f8686604051602001610b94929190611628565b6040516020818303038152906040528051906020012090505f610bb982868686610cd3565b90505f73ffffffffffffffffffffffffffffffffffffffff168173ffffffffffffffffffffffffffffffffffffffff161480610c2157508573ffffffffffffffffffffffffffffffffffffffff168173ffffffffffffffffffffffffffffffffffffffff1614155b15610c58576040517f8baa579f00000000000000000000000000000000000000000000000000000000815260040160405180910390fd5b5050505050505050565b610c70848484846001610d2a565b610cb157836040517f5274afe7000000000000000000000000000000000000000000000000000000008152600401610ca89190610e0b565b60405180910390fd5b50505050565b5f6002610cca610cc56109c6565b6109ef565b5f015414905090565b5f6001858585856040515f8152602001604052604051610cf6949392919061166d565b6020604051602081039080840390855afa158015610d16573d5f5f3e3d5ffd5b505050602060405103519050949350505050565b5f5f6323b872dd60e01b9050604051815f525f1960601c87166004525f1960601c86166024528460445260205f60645f5f8c5af1925060015f51148316610d88578383151615610d7c573d5f823e3d81fd5b5f883b113d1516831692505b806040525f606052505095945050505050565b5f819050919050565b610dad81610d9b565b82525050565b5f602082019050610dc65f830184610da4565b92915050565b5f73ffffffffffffffffffffffffffffffffffffffff82169050919050565b5f610df582610dcc565b9050919050565b610e0581610deb565b82525050565b5f602082019050610e1e5f830184610dfc565b92915050565b5f604051905090565b5f5ffd5b5f5ffd5b5f60408284031215610e4a57610e49610e31565b5b81905092915050565b5f6101408284031215610e6957610e68610e31565b5b81905092915050565b5f60608284031215610e8757610e86610e31565b5b81905092915050565b5f5f5f6101e08486031215610ea857610ea7610e2d565b5b5f610eb586828701610e35565b9350506040610ec686828701610e53565b925050610180610ed886828701610e72565b9150509250925092565b610eeb81610deb565b8114610ef5575f5ffd5b50565b5f81359050610f0681610ee2565b92915050565b5f819050919050565b610f1e81610f0c565b8114610f28575f5ffd5b50565b5f81359050610f3981610f15565b92915050565b5f5f60408385031215610f5557610f54610e2d565b5b5f610f6285828601610ef8565b9250506020610f7385828601610f2b565b9150509250929050565b5f8115159050919050565b610f9181610f7d565b82525050565b5f602082019050610faa5f830184610f88565b92915050565b610fb981610f0c565b82525050565b5f602082019050610fd25f830184610fb0565b92915050565b5f60208284031215610fed57610fec610e2d565b5b5f610ffa84828501610ef8565b91505092915050565b5f5ffd5b5f601f19601f8301169050919050565b7f4e487b71000000000000000000000000000000000000000000000000000000005f52604160045260245ffd5b61104d82611007565b810181811067ffffffffffffffff8211171561106c5761106b611017565b5b80604052505050565b5f61107e610e24565b905061108a8282611044565b919050565b6003811061109b575f5ffd5b50565b5f813590506110ac8161108f565b92915050565b6110bb81610f7d565b81146110c5575f5ffd5b50565b5f813590506110d6816110b2565b92915050565b5f67ffffffffffffffff82169050919050565b6110f8816110dc565b8114611102575f5ffd5b50565b5f81359050611113816110ef565b92915050565b5f610140828403121561112f5761112e611003565b5b61113a610140611075565b90505f6111498482850161109e565b5f83015250602061115c84828501610ef8565b6020830152506040611170848285016110c8565b604083015250606061118484828501610ef8565b606083015250608061119884828501610f2b565b60808301525060a06111ac84828501610f2b565b60a08301525060c06111c084828501610ef8565b60c08301525060e06111d484828501611105565b60e0830152506101006111e984828501611105565b610100830152506101206111ff84828501610f2b565b6101208301525092915050565b5f610140828403121561122257611221610e2d565b5b5f61122f84828501611119565b91505092915050565b5f6020828403121561124d5761124c610e2d565b5b5f61125a848285016110c8565b91505092915050565b5f60ff82169050919050565b61127881611263565b8114611282575f5ffd5b50565b5f813590506112938161126f565b92915050565b5f602082840312156112ae576112ad610e2d565b5b5f6112bb84828501611285565b91505092915050565b7f4e487b71000000000000000000000000000000000000000000000000000000005f52602160045260245ffd5b7f4e487b71000000000000000000000000000000000000000000000000000000005f52601160045260245ffd5b5f61132882610f0c565b915061133383610f0c565b925082820261134181610f0c565b91508282048414831517611358576113576112f1565b5b5092915050565b7f4e487b71000000000000000000000000000000000000000000000000000000005f52601260045260245ffd5b5f61139682610f0c565b91506113a183610f0c565b9250826113b1576113b061135f565b5b828204905092915050565b5f6113c682610f0c565b91506113d183610f0c565b92508282039050818111156113e9576113e86112f1565b5b92915050565b5f7fffffffff0000000000000000000000000000000000000000000000000000000082169050919050565b611423816113ef565b82525050565b5f60208201905061143c5f83018461141a565b92915050565b5f81519050611450816110b2565b92915050565b5f6020828403121561146b5761146a610e2d565b5b5f61147884828501611442565b91505092915050565b5f6060820190506114945f830186610dfc565b6114a16020830185610dfc565b6114ae6040830184610fb0565b949350505050565b600381106114c7576114c66112c4565b5b50565b5f8190506114d7826114b6565b919050565b5f6114e6826114ca565b9050919050565b6114f6816114dc565b82525050565b611505816110dc565b82525050565b5f6101608201905061151f5f83018e610da4565b61152c602083018d610dfc565b611539604083018c610f88565b611546606083018b610dfc565b611553608083018a610fb0565b61156060a0830189610fb0565b61156d60c0830188610dfc565b61157a60e08301876114ed565b6115886101008301866114fc565b6115966101208301856114fc565b6115a4610140830184610fb0565b9c9b505050505050505050505050565b5f81905092915050565b7f19010000000000000000000000000000000000000000000000000000000000005f82015250565b5f6115f26002836115b4565b91506115fd826115be565b600282019050919050565b5f819050919050565b61162261161d82610d9b565b611608565b82525050565b5f611632826115e6565b915061163e8285611611565b60208201915061164e8284611611565b6020820191508190509392505050565b61166781611263565b82525050565b5f6080820190506116805f830187610da4565b61168d602083018661165e565b61169a6040830185610da4565b6116a76060830184610da4565b9594505050505056fea2646970667358221220a4ee0b8c295ae48941d40960a9f9a8d9f3871a8a8294a39d4ffcf21a1827d38364736f6c634300081e0033","linkReferences":{}},"methodIdentifiers":{"DOMAIN_SEPARATOR()":"3644e515","PROTOCOL_FEE_BPS()":"be378228","WETH()":"ad5c4648","isUserOrderNonceInvalid(address,uint256)":"63fbb4d5","protocolFeeReceiver()":"39a51be5","settle((address,uint256),(uint8,address,bool,address,uint256,uint256,address,uint64,uint64,uint256),(uint8,bytes32,bytes32))":"3f9cb28e"},"id":3}