{"abi":[{"type":"constructor","inputs":[{"name":"weth","type":"address","internalType":"address"},{"name":"feeRecipient","type":"address","internalType":"address"}],"stateMutability":"nonpayable"},{"type":"function","name":"DOMAIN_SEPARATOR","inputs":[],"outputs":[{"name":"","type":"bytes32","internalType":"bytes32"}],"stateMutability":"view"},{"type":"function","name":"PROTOCOL_FEE_BPS","inputs":[],"outputs":[{"name":"","type":"uint256","internalType":"uint256"}],"stateMutability":"view"},{"type":"function","name":"WETH","inputs":[],"outputs":[{"name":"","type":"address","internalType":"address"}],"stateMutability":"view"},{"type":"function","name":"isUserOrderNonceInvalid","inputs":[{"name":"user","type":"address","internalType":"address"},{"name":"nonce","type":"uint256","internalType":"uint256"}],"outputs":[{"name":"","type":"bool","internalType":"bool"}],"stateMutability":"view"},{"type":"function","name":"protocolFeeRecipient","inputs":[],"outputs":[{"name":"","type":"address","internalType":"address"}],"stateMutability":"view"},{"type":"function","name":"settle","inputs":[{"name":"fill","type":"tuple","internalType":"struct OrderActs.Fill","components":[{"name":"tokenId","type":"uint256","internalType":"uint256"},{"name":"actor","type":"address","internalType":"address"}]},{"name":"order","type":"tuple","internalType":"struct OrderActs.Order","components":[{"name":"side","type":"uint8","internalType":"enum OrderActs.Side"},{"name":"isCollectionBid","type":"bool","internalType":"bool"},{"name":"collection","type":"address","internalType":"address"},{"name":"tokenId","type":"uint256","internalType":"uint256"},{"name":"currency","type":"address","internalType":"address"},{"name":"price","type":"uint256","internalType":"uint256"},{"name":"actor","type":"address","internalType":"address"},{"name":"start","type":"uint64","internalType":"uint64"},{"name":"end","type":"uint64","internalType":"uint64"},{"name":"nonce","type":"uint256","internalType":"uint256"}]},{"name":"sig","type":"tuple","internalType":"struct SignatureOps.Signature","components":[{"name":"v","type":"uint8","internalType":"uint8"},{"name":"r","type":"bytes32","internalType":"bytes32"},{"name":"s","type":"bytes32","internalType":"bytes32"}]}],"outputs":[],"stateMutability":"payable"},{"type":"event","name":"Settlement","inputs":[{"name":"orderHash","type":"bytes32","indexed":true,"internalType":"bytes32"},{"name":"collection","type":"address","indexed":true,"internalType":"address"},{"name":"tokenId","type":"uint256","indexed":true,"internalType":"uint256"},{"name":"seller","type":"address","indexed":false,"internalType":"address"},{"name":"buyer","type":"address","indexed":false,"internalType":"address"},{"name":"currency","type":"address","indexed":false,"internalType":"address"},{"name":"price","type":"uint256","indexed":false,"internalType":"uint256"}],"anonymous":false},{"type":"error","name":"ContractSignerUnsupported","inputs":[]},{"type":"error","name":"CurrencyNotWhitelisted","inputs":[]},{"type":"error","name":"InvalidNonce","inputs":[]},{"type":"error","name":"InvalidOrderSide","inputs":[]},{"type":"error","name":"InvalidSParameter","inputs":[]},{"type":"error","name":"InvalidSignature","inputs":[]},{"type":"error","name":"InvalidTimestamp","inputs":[]},{"type":"error","name":"InvalidYParity","inputs":[]},{"type":"error","name":"ReentrancyGuardReentrantCall","inputs":[]},{"type":"error","name":"SafeERC20FailedOperation","inputs":[{"name":"token","type":"address","internalType":"address"}]},{"type":"error","name":"UnauthorizedFillActor","inputs":[]},{"type":"error","name":"UnsupportedCollection","inputs":[]},{"type":"error","name":"ZeroActor","inputs":[]}],"bytecode":{"object":"0x60e0604052606460c090815250348015610017575f5ffd5b50604051611c21380380611c21833981810160405281019061003991906101fd565b600161005761004c61016d60201b60201c565b61019660201b60201c565b5f01819055507f8b73c3c69bb8fe3d512ecc4cf759cc79239f7b179b0ffacaa9a75d522b39400f7f997dc85543e54e3a10f066eed263ff8d0cbf9f87e862f32fce17b110cadc23f27f044852b2a670ade5407e78fb2863c51de9fcb96542a07186fe3aeda6bb8a116d46306040516020016100d6959493929190610316565b60405160208183030381529060405280519060200120608081815250508173ffffffffffffffffffffffffffffffffffffffff1660a08173ffffffffffffffffffffffffffffffffffffffff1681525050805f5f6101000a81548173ffffffffffffffffffffffffffffffffffffffff021916908373ffffffffffffffffffffffffffffffffffffffff1602179055505050610367565b5f7f9b779b17422d0df92223018b32b4d1fa46e071723d6817e2486d003becc55f005f1b905090565b5f819050919050565b5f5ffd5b5f73ffffffffffffffffffffffffffffffffffffffff82169050919050565b5f6101cc826101a3565b9050919050565b6101dc816101c2565b81146101e6575f5ffd5b50565b5f815190506101f7816101d3565b92915050565b5f5f604083850312156102135761021261019f565b5b5f610220858286016101e9565b9250506020610231858286016101e9565b9150509250929050565b5f819050919050565b5f819050919050565b5f819050919050565b5f61027061026b6102668461023b565b61024d565b610244565b9050919050565b61028081610256565b82525050565b5f819050919050565b5f6102a96102a461029f84610286565b61024d565b610244565b9050919050565b6102b98161028f565b82525050565b5f819050919050565b5f6102e26102dd6102d8846102bf565b61024d565b610244565b9050919050565b6102f2816102c8565b82525050565b61030181610244565b82525050565b610310816101c2565b82525050565b5f60a0820190506103295f830188610277565b61033660208301876102b0565b61034360408301866102e9565b61035060608301856102f8565b61035d6080830184610307565b9695505050505050565b60805160a05160c05161187b6103a65f395f8181610461015261088101525f818161043d01526106fc01525f818161015a0152610796015261187b5ff3fe608060405260043610610054575f3560e01c80633644e515146100585780633bae3e791461008257806363fbb4d51461009e57806364df049e146100da578063ad5c464814610104578063be3782281461012e575b5f5ffd5b348015610063575f5ffd5b5061006c610158565b6040516100799190610e8d565b60405180910390f35b61009c60048036038101906100979190610f12565b61017c565b005b3480156100a9575f5ffd5b506100c460048036038101906100bf9190610ff1565b6103b5565b6040516100d19190611049565b60405180910390f35b3480156100e5575f5ffd5b506100ee610417565b6040516100fb9190611071565b60405180910390f35b34801561010f575f5ffd5b5061011861043b565b6040516101259190611071565b60405180910390f35b348015610139575f5ffd5b5061014261045f565b60405161014f9190611099565b60405180910390f35b7f000000000000000000000000000000000000000000000000000000000000000081565b610184610483565b82602001602081019061019791906110b2565b73ffffffffffffffffffffffffffffffffffffffff163373ffffffffffffffffffffffffffffffffffffffff16146101fb576040517fc2b1dce200000000000000000000000000000000000000000000000000000000815260040160405180910390fd5b5f6102158380360381019061021091906112e6565b6104a5565b90505f5f5f61022385610531565b925092509250610236868585858561055d565b6001805f8860c001602081019061024d91906110b2565b73ffffffffffffffffffffffffffffffffffffffff1673ffffffffffffffffffffffffffffffffffffffff1681526020019081526020015f205f88610120013581526020019081526020015f205f6101000a81548160ff0219169083151502179055505f5f5f6102dd8a8036038101906102c7919061135f565b8a8036038101906102d891906112e6565b6107d8565b9250925092506103058960800160208101906102f991906110b2565b83858c60a00135610877565b61032389604001602081019061031b91906110b2565b848484610947565b8089604001602081019061033791906110b2565b73ffffffffffffffffffffffffffffffffffffffff16887fc0ac3eb1e8caef05b202043f34de8e3173fab712167584f7a2a9f4c302bd0e9c86868e608001602081019061038491906110b2565b8f60a00135604051610399949392919061138a565b60405180910390a4505050505050506103b0610a6c565b505050565b5f60015f8473ffffffffffffffffffffffffffffffffffffffff1673ffffffffffffffffffffffffffffffffffffffff1681526020019081526020015f205f8381526020019081526020015f205f9054906101000a900460ff16905092915050565b5f5f9054906101000a900473ffffffffffffffffffffffffffffffffffffffff1681565b7f000000000000000000000000000000000000000000000000000000000000000081565b7f000000000000000000000000000000000000000000000000000000000000000081565b61048b610a86565b600261049d610498610ac7565b610af0565b5f0181905550565b5f7f60ee8275a0ebcf68c310f721d23f781ff9ae32ac166c160ad7c7bc5f89028880825f015183602001518460400151856060015186608001518760a001518860c001518960e001518a61010001518b61012001516040516020016105149b9a9998979695949392919061144f565b604051602081830303815290604052805190602001209050919050565b5f5f5f835f016020810190610546919061152e565b846020013585604001359250925092509193909250565b5f73ffffffffffffffffffffffffffffffffffffffff168560c001602081019061058791906110b2565b73ffffffffffffffffffffffffffffffffffffffff16036105d4576040517fb1375a3d00000000000000000000000000000000000000000000000000000000815260040160405180910390fd5b60015f8660c00160208101906105ea91906110b2565b73ffffffffffffffffffffffffffffffffffffffff1673ffffffffffffffffffffffffffffffffffffffff1681526020019081526020015f205f86610120013581526020019081526020015f205f9054906101000a900460ff161561067b576040517f756688fe00000000000000000000000000000000000000000000000000000000815260040160405180910390fd5b428560e001602081019061068f9190611559565b67ffffffffffffffff16111580156106c4575042856101000160208101906106b79190611559565b67ffffffffffffffff1610155b6106fa576040517fb7d0949700000000000000000000000000000000000000000000000000000000815260040160405180910390fd5b7f000000000000000000000000000000000000000000000000000000000000000073ffffffffffffffffffffffffffffffffffffffff1685608001602081019061074491906110b2565b73ffffffffffffffffffffffffffffffffffffffff1614610791576040517f5f6063cc00000000000000000000000000000000000000000000000000000000815260040160405180910390fd5b6107d17f0000000000000000000000000000000000000000000000000000000000000000858760c00160208101906107c991906110b2565b868686610af9565b5050505050565b5f5f5f6107e484610cd7565b15610803578360c0015185602001518560600151925092509250610870565b61080c84610d09565b1561083e5784602001518460c00151856020015161082e578560600151610833565b865f01515b925092509250610870565b6040517fea5ea9e200000000000000000000000000000000000000000000000000000000815260040160405180910390fd5b9250925092565b5f8190505f6127107f0000000000000000000000000000000000000000000000000000000000000000846108ab91906115b1565b6108b5919061161f565b9050610904855f5f9054906101000a900473ffffffffffffffffffffffffffffffffffffffff16838973ffffffffffffffffffffffffffffffffffffffff16610d3c909392919063ffffffff16565b8082610910919061164f565b9150506109408484838873ffffffffffffffffffffffffffffffffffffffff16610d3c909392919063ffffffff16565b5050505050565b8373ffffffffffffffffffffffffffffffffffffffff166301ffc9a76380ac58cd60e01b6040518263ffffffff1660e01b815260040161098791906116bc565b602060405180830381865afa1580156109a2573d5f5f3e3d5ffd5b505050506040513d601f19601f820116820180604052508101906109c691906116e9565b6109fc576040517f0179a91700000000000000000000000000000000000000000000000000000000815260040160405180910390fd5b8373ffffffffffffffffffffffffffffffffffffffff166342842e0e8484846040518463ffffffff1660e01b8152600401610a3993929190611714565b5f604051808303815f87803b158015610a50575f5ffd5b505af1158015610a62573d5f5f3e3d5ffd5b5050505050505050565b6001610a7e610a79610ac7565b610af0565b5f0181905550565b610a8e610d91565b15610ac5576040517f3ee5aeb500000000000000000000000000000000000000000000000000000000815260040160405180910390fd5b565b5f7f9b779b17422d0df92223018b32b4d1fa46e071723d6817e2486d003becc55f005f1b905090565b5f819050919050565b5f8473ffffffffffffffffffffffffffffffffffffffff163b1115610b4a576040517faa1742fe00000000000000000000000000000000000000000000000000000000815260040160405180910390fd5b601b8360ff1614158015610b625750601c8360ff1614155b15610b99576040517f541b3bce00000000000000000000000000000000000000000000000000000000815260040160405180910390fd5b7f7fffffffffffffffffffffffffffffff5d576e7357a4501ddfe92f46681b20a0815f1c1115610bf5576040517f0658eabd00000000000000000000000000000000000000000000000000000000815260040160405180910390fd5b5f8686604051602001610c099291906117bd565b6040516020818303038152906040528051906020012090505f610c2e82868686610dad565b90505f73ffffffffffffffffffffffffffffffffffffffff168173ffffffffffffffffffffffffffffffffffffffff161480610c9657508573ffffffffffffffffffffffffffffffffffffffff168173ffffffffffffffffffffffffffffffffffffffff1614155b15610ccd576040517f8baa579f00000000000000000000000000000000000000000000000000000000815260040160405180910390fd5b5050505050505050565b5f5f6002811115610ceb57610cea6113cd565b5b825f01516002811115610d0157610d006113cd565b5b149050919050565b5f60016002811115610d1e57610d1d6113cd565b5b825f01516002811115610d3457610d336113cd565b5b149050919050565b610d4a848484846001610e04565b610d8b57836040517f5274afe7000000000000000000000000000000000000000000000000000000008152600401610d829190611071565b60405180910390fd5b50505050565b5f6002610da4610d9f610ac7565b610af0565b5f015414905090565b5f6001858585856040515f8152602001604052604051610dd09493929190611802565b6020604051602081039080840390855afa158015610df0573d5f5f3e3d5ffd5b505050602060405103519050949350505050565b5f5f6323b872dd60e01b9050604051815f525f1960601c87166004525f1960601c86166024528460445260205f60645f5f8c5af1925060015f51148316610e62578383151615610e56573d5f823e3d81fd5b5f883b113d1516831692505b806040525f606052505095945050505050565b5f819050919050565b610e8781610e75565b82525050565b5f602082019050610ea05f830184610e7e565b92915050565b5f604051905090565b5f5ffd5b5f5ffd5b5f60408284031215610ecc57610ecb610eb3565b5b81905092915050565b5f6101408284031215610eeb57610eea610eb3565b5b81905092915050565b5f60608284031215610f0957610f08610eb3565b5b81905092915050565b5f5f5f6101e08486031215610f2a57610f29610eaf565b5b5f610f3786828701610eb7565b9350506040610f4886828701610ed5565b925050610180610f5a86828701610ef4565b9150509250925092565b5f73ffffffffffffffffffffffffffffffffffffffff82169050919050565b5f610f8d82610f64565b9050919050565b610f9d81610f83565b8114610fa7575f5ffd5b50565b5f81359050610fb881610f94565b92915050565b5f819050919050565b610fd081610fbe565b8114610fda575f5ffd5b50565b5f81359050610feb81610fc7565b92915050565b5f5f6040838503121561100757611006610eaf565b5b5f61101485828601610faa565b925050602061102585828601610fdd565b9150509250929050565b5f8115159050919050565b6110438161102f565b82525050565b5f60208201905061105c5f83018461103a565b92915050565b61106b81610f83565b82525050565b5f6020820190506110845f830184611062565b92915050565b61109381610fbe565b82525050565b5f6020820190506110ac5f83018461108a565b92915050565b5f602082840312156110c7576110c6610eaf565b5b5f6110d484828501610faa565b91505092915050565b5f5ffd5b5f601f19601f8301169050919050565b7f4e487b71000000000000000000000000000000000000000000000000000000005f52604160045260245ffd5b611127826110e1565b810181811067ffffffffffffffff82111715611146576111456110f1565b5b80604052505050565b5f611158610ea6565b9050611164828261111e565b919050565b60038110611175575f5ffd5b50565b5f8135905061118681611169565b92915050565b6111958161102f565b811461119f575f5ffd5b50565b5f813590506111b08161118c565b92915050565b5f67ffffffffffffffff82169050919050565b6111d2816111b6565b81146111dc575f5ffd5b50565b5f813590506111ed816111c9565b92915050565b5f6101408284031215611209576112086110dd565b5b61121461014061114f565b90505f61122384828501611178565b5f830152506020611236848285016111a2565b602083015250604061124a84828501610faa565b604083015250606061125e84828501610fdd565b606083015250608061127284828501610faa565b60808301525060a061128684828501610fdd565b60a08301525060c061129a84828501610faa565b60c08301525060e06112ae848285016111df565b60e0830152506101006112c3848285016111df565b610100830152506101206112d984828501610fdd565b6101208301525092915050565b5f61014082840312156112fc576112fb610eaf565b5b5f611309848285016111f3565b91505092915050565b5f60408284031215611327576113266110dd565b5b611331604061114f565b90505f61134084828501610fdd565b5f83015250602061135384828501610faa565b60208301525092915050565b5f6040828403121561137457611373610eaf565b5b5f61138184828501611312565b91505092915050565b5f60808201905061139d5f830187611062565b6113aa6020830186611062565b6113b76040830185611062565b6113c4606083018461108a565b95945050505050565b7f4e487b71000000000000000000000000000000000000000000000000000000005f52602160045260245ffd5b6003811061140b5761140a6113cd565b5b50565b5f81905061141b826113fa565b919050565b5f61142a8261140e565b9050919050565b61143a81611420565b82525050565b611449816111b6565b82525050565b5f610160820190506114635f83018e610e7e565b611470602083018d611431565b61147d604083018c61103a565b61148a606083018b611062565b611497608083018a61108a565b6114a460a0830189611062565b6114b160c083018861108a565b6114be60e0830187611062565b6114cc610100830186611440565b6114da610120830185611440565b6114e861014083018461108a565b9c9b505050505050505050505050565b5f60ff82169050919050565b61150d816114f8565b8114611517575f5ffd5b50565b5f8135905061152881611504565b92915050565b5f6020828403121561154357611542610eaf565b5b5f6115508482850161151a565b91505092915050565b5f6020828403121561156e5761156d610eaf565b5b5f61157b848285016111df565b91505092915050565b7f4e487b71000000000000000000000000000000000000000000000000000000005f52601160045260245ffd5b5f6115bb82610fbe565b91506115c683610fbe565b92508282026115d481610fbe565b915082820484148315176115eb576115ea611584565b5b5092915050565b7f4e487b71000000000000000000000000000000000000000000000000000000005f52601260045260245ffd5b5f61162982610fbe565b915061163483610fbe565b925082611644576116436115f2565b5b828204905092915050565b5f61165982610fbe565b915061166483610fbe565b925082820390508181111561167c5761167b611584565b5b92915050565b5f7fffffffff0000000000000000000000000000000000000000000000000000000082169050919050565b6116b681611682565b82525050565b5f6020820190506116cf5f8301846116ad565b92915050565b5f815190506116e38161118c565b92915050565b5f602082840312156116fe576116fd610eaf565b5b5f61170b848285016116d5565b91505092915050565b5f6060820190506117275f830186611062565b6117346020830185611062565b611741604083018461108a565b949350505050565b5f81905092915050565b7f19010000000000000000000000000000000000000000000000000000000000005f82015250565b5f611787600283611749565b915061179282611753565b600282019050919050565b5f819050919050565b6117b76117b282610e75565b61179d565b82525050565b5f6117c78261177b565b91506117d382856117a6565b6020820191506117e382846117a6565b6020820191508190509392505050565b6117fc816114f8565b82525050565b5f6080820190506118155f830187610e7e565b61182260208301866117f3565b61182f6040830185610e7e565b61183c6060830184610e7e565b9594505050505056fea2646970667358221220c81c3c42b2735f21972f130f4d1fa0121854b671a0ff61fdcb555638b0271c2164736f6c634300081e0033","linkReferences":{}},"methodIdentifiers":{"DOMAIN_SEPARATOR()":"3644e515","PROTOCOL_FEE_BPS()":"be378228","WETH()":"ad5c4648","isUserOrderNonceInvalid(address,uint256)":"63fbb4d5","protocolFeeRecipient()":"64df049e","settle((uint256,address),(uint8,bool,address,uint256,address,uint256,address,uint64,uint64,uint256),(uint8,bytes32,bytes32))":"3bae3e79"},"id":0}