{"abi":[{"type":"constructor","inputs":[{"name":"weth","type":"address","internalType":"address"},{"name":"feeRecipient","type":"address","internalType":"address"}],"stateMutability":"nonpayable"},{"type":"function","name":"DOMAIN_SEPARATOR","inputs":[],"outputs":[{"name":"","type":"bytes32","internalType":"bytes32"}],"stateMutability":"view"},{"type":"function","name":"PROTOCOL_FEE_BPS","inputs":[],"outputs":[{"name":"","type":"uint256","internalType":"uint256"}],"stateMutability":"view"},{"type":"function","name":"WETH","inputs":[],"outputs":[{"name":"","type":"address","internalType":"address"}],"stateMutability":"view"},{"type":"function","name":"isUserOrderNonceInvalid","inputs":[{"name":"user","type":"address","internalType":"address"},{"name":"nonce","type":"uint256","internalType":"uint256"}],"outputs":[{"name":"","type":"bool","internalType":"bool"}],"stateMutability":"view"},{"type":"function","name":"protocolFeeRecipient","inputs":[],"outputs":[{"name":"","type":"address","internalType":"address"}],"stateMutability":"view"},{"type":"function","name":"settle","inputs":[{"name":"fill","type":"tuple","internalType":"struct OrderActs.Fill","components":[{"name":"tokenId","type":"uint256","internalType":"uint256"},{"name":"actor","type":"address","internalType":"address"}]},{"name":"order","type":"tuple","internalType":"struct OrderActs.Order","components":[{"name":"side","type":"uint8","internalType":"enum OrderActs.Side"},{"name":"isCollectionBid","type":"bool","internalType":"bool"},{"name":"collection","type":"address","internalType":"address"},{"name":"tokenId","type":"uint256","internalType":"uint256"},{"name":"currency","type":"address","internalType":"address"},{"name":"price","type":"uint256","internalType":"uint256"},{"name":"actor","type":"address","internalType":"address"},{"name":"start","type":"uint64","internalType":"uint64"},{"name":"end","type":"uint64","internalType":"uint64"},{"name":"nonce","type":"uint256","internalType":"uint256"}]},{"name":"sig","type":"tuple","internalType":"struct SignatureOps.Signature","components":[{"name":"v","type":"uint8","internalType":"uint8"},{"name":"r","type":"bytes32","internalType":"bytes32"},{"name":"s","type":"bytes32","internalType":"bytes32"}]}],"outputs":[],"stateMutability":"payable"},{"type":"error","name":"ContractSignerUnsupported","inputs":[]},{"type":"error","name":"CurrencyNotWhitelisted","inputs":[]},{"type":"error","name":"InvalidNonce","inputs":[]},{"type":"error","name":"InvalidOrderSide","inputs":[]},{"type":"error","name":"InvalidSParameter","inputs":[]},{"type":"error","name":"InvalidSignature","inputs":[]},{"type":"error","name":"InvalidTimestamp","inputs":[]},{"type":"error","name":"InvalidYParity","inputs":[]},{"type":"error","name":"ReentrancyGuardReentrantCall","inputs":[]},{"type":"error","name":"SafeERC20FailedOperation","inputs":[{"name":"token","type":"address","internalType":"address"}]},{"type":"error","name":"UnauthorizedFillActor","inputs":[]},{"type":"error","name":"UnsupportedCollection","inputs":[]},{"type":"error","name":"ZeroActor","inputs":[]}],"bytecode":{"object":"0x60e0604052606460c090815250348015610017575f5ffd5b50604051611b39380380611b39833981810160405281019061003991906101fd565b600161005761004c61016d60201b60201c565b61019660201b60201c565b5f01819055507f8b73c3c69bb8fe3d512ecc4cf759cc79239f7b179b0ffacaa9a75d522b39400f7f997dc85543e54e3a10f066eed263ff8d0cbf9f87e862f32fce17b110cadc23f27f044852b2a670ade5407e78fb2863c51de9fcb96542a07186fe3aeda6bb8a116d46306040516020016100d6959493929190610316565b60405160208183030381529060405280519060200120608081815250508173ffffffffffffffffffffffffffffffffffffffff1660a08173ffffffffffffffffffffffffffffffffffffffff1681525050805f5f6101000a81548173ffffffffffffffffffffffffffffffffffffffff021916908373ffffffffffffffffffffffffffffffffffffffff1602179055505050610367565b5f7f9b779b17422d0df92223018b32b4d1fa46e071723d6817e2486d003becc55f005f1b905090565b5f819050919050565b5f5ffd5b5f73ffffffffffffffffffffffffffffffffffffffff82169050919050565b5f6101cc826101a3565b9050919050565b6101dc816101c2565b81146101e6575f5ffd5b50565b5f815190506101f7816101d3565b92915050565b5f5f604083850312156102135761021261019f565b5b5f610220858286016101e9565b9250506020610231858286016101e9565b9150509250929050565b5f819050919050565b5f819050919050565b5f819050919050565b5f61027061026b6102668461023b565b61024d565b610244565b9050919050565b61028081610256565b82525050565b5f819050919050565b5f6102a96102a461029f84610286565b61024d565b610244565b9050919050565b6102b98161028f565b82525050565b5f819050919050565b5f6102e26102dd6102d8846102bf565b61024d565b610244565b9050919050565b6102f2816102c8565b82525050565b61030181610244565b82525050565b610310816101c2565b82525050565b5f60a0820190506103295f830188610277565b61033660208301876102b0565b61034360408301866102e9565b61035060608301856102f8565b61035d6080830184610307565b9695505050505050565b60805160a05160c0516117936103a65f395f8181610491015261080201525f818161046d01526106a001525f818161015a015261073a01526117935ff3fe608060405260043610610054575f3560e01c80633644e515146100585780633bae3e791461008257806363fbb4d51461009e57806364df049e146100da578063ad5c464814610104578063be3782281461012e575b5f5ffd5b348015610063575f5ffd5b5061006c610158565b6040516100799190610e35565b60405180910390f35b61009c60048036038101906100979190610eba565b61017c565b005b3480156100a9575f5ffd5b506100c460048036038101906100bf9190610f99565b6103e5565b6040516100d19190610ff1565b60405180910390f35b3480156100e5575f5ffd5b506100ee610447565b6040516100fb9190611019565b60405180910390f35b34801561010f575f5ffd5b5061011861046b565b6040516101259190611019565b60405180910390f35b348015610139575f5ffd5b5061014261048f565b60405161014f9190611041565b60405180910390f35b7f000000000000000000000000000000000000000000000000000000000000000081565b6101846104b3565b826020016020810190610197919061105a565b73ffffffffffffffffffffffffffffffffffffffff163373ffffffffffffffffffffffffffffffffffffffff16146101fb576040517fc2b1dce200000000000000000000000000000000000000000000000000000000815260040160405180910390fd5b5f5f5f610207846104d5565b92509250925061021985848484610501565b6001805f8760c0016020810190610230919061105a565b73ffffffffffffffffffffffffffffffffffffffff1673ffffffffffffffffffffffffffffffffffffffff1681526020019081526020015f205f87610120013581526020019081526020015f205f6101000a81548160ff0219169083151502179055505f5f5f6102af888036038101906102aa919061128e565b610793565b156102ea578760c00160208101906102c7919061105a565b92508860200160208101906102dc919061105a565b915087606001359050610392565b610303888036038101906102fe919061128e565b6107c5565b1561035f5788602001602081019061031b919061105a565b92508760c0016020810190610330919061105a565b915087602001602081019061034591906112ba565b610353578760600135610358565b885f01355b9050610391565b6040517fea5ea9e200000000000000000000000000000000000000000000000000000000815260040160405180910390fd5b5b6103b48860800160208101906103a8919061105a565b83858b60a001356107f8565b6103d28860400160208101906103ca919061105a565b8484846108c8565b5050505050506103e06109ed565b505050565b5f60015f8473ffffffffffffffffffffffffffffffffffffffff1673ffffffffffffffffffffffffffffffffffffffff1681526020019081526020015f205f8381526020019081526020015f205f9054906101000a900460ff16905092915050565b5f5f9054906101000a900473ffffffffffffffffffffffffffffffffffffffff1681565b7f000000000000000000000000000000000000000000000000000000000000000081565b7f000000000000000000000000000000000000000000000000000000000000000081565b6104bb610a07565b60026104cd6104c8610a48565b610a71565b5f0181905550565b5f5f5f835f0160208101906104ea919061131b565b846020013585604001359250925092509193909250565b5f73ffffffffffffffffffffffffffffffffffffffff168460c001602081019061052b919061105a565b73ffffffffffffffffffffffffffffffffffffffff1603610578576040517fb1375a3d00000000000000000000000000000000000000000000000000000000815260040160405180910390fd5b60015f8560c001602081019061058e919061105a565b73ffffffffffffffffffffffffffffffffffffffff1673ffffffffffffffffffffffffffffffffffffffff1681526020019081526020015f205f85610120013581526020019081526020015f205f9054906101000a900460ff161561061f576040517f756688fe00000000000000000000000000000000000000000000000000000000815260040160405180910390fd5b428460e00160208101906106339190611346565b67ffffffffffffffff16111580156106685750428461010001602081019061065b9190611346565b67ffffffffffffffff1610155b61069e576040517fb7d0949700000000000000000000000000000000000000000000000000000000815260040160405180910390fd5b7f000000000000000000000000000000000000000000000000000000000000000073ffffffffffffffffffffffffffffffffffffffff168460800160208101906106e8919061105a565b73ffffffffffffffffffffffffffffffffffffffff1614610735576040517f5f6063cc00000000000000000000000000000000000000000000000000000000815260040160405180910390fd5b61078d7f00000000000000000000000000000000000000000000000000000000000000006107728680360381019061076d919061128e565b610a7a565b8660c0016020810190610785919061105a565b868686610b06565b50505050565b5f5f60028111156107a7576107a6611371565b5b825f015160028111156107bd576107bc611371565b5b149050919050565b5f600160028111156107da576107d9611371565b5b825f015160028111156107f0576107ef611371565b5b149050919050565b5f8190505f6127107f00000000000000000000000000000000000000000000000000000000000000008461082c91906113cb565b6108369190611439565b9050610885855f5f9054906101000a900473ffffffffffffffffffffffffffffffffffffffff16838973ffffffffffffffffffffffffffffffffffffffff16610ce4909392919063ffffffff16565b80826108919190611469565b9150506108c18484838873ffffffffffffffffffffffffffffffffffffffff16610ce4909392919063ffffffff16565b5050505050565b8373ffffffffffffffffffffffffffffffffffffffff166301ffc9a76380ac58cd60e01b6040518263ffffffff1660e01b815260040161090891906114d6565b602060405180830381865afa158015610923573d5f5f3e3d5ffd5b505050506040513d601f19601f820116820180604052508101906109479190611503565b61097d576040517f0179a91700000000000000000000000000000000000000000000000000000000815260040160405180910390fd5b8373ffffffffffffffffffffffffffffffffffffffff166342842e0e8484846040518463ffffffff1660e01b81526004016109ba9392919061152e565b5f604051808303815f87803b1580156109d1575f5ffd5b505af11580156109e3573d5f5f3e3d5ffd5b5050505050505050565b60016109ff6109fa610a48565b610a71565b5f0181905550565b610a0f610d39565b15610a46576040517f3ee5aeb500000000000000000000000000000000000000000000000000000000815260040160405180910390fd5b565b5f7f9b779b17422d0df92223018b32b4d1fa46e071723d6817e2486d003becc55f005f1b905090565b5f819050919050565b5f7f60ee8275a0ebcf68c310f721d23f781ff9ae32ac166c160ad7c7bc5f89028880825f015183602001518460400151856060015186608001518760a001518860c001518960e001518a61010001518b6101200151604051602001610ae99b9a999897969594939291906115b8565b604051602081830303815290604052805190602001209050919050565b5f8473ffffffffffffffffffffffffffffffffffffffff163b1115610b57576040517faa1742fe00000000000000000000000000000000000000000000000000000000815260040160405180910390fd5b601b8360ff1614158015610b6f5750601c8360ff1614155b15610ba6576040517f541b3bce00000000000000000000000000000000000000000000000000000000815260040160405180910390fd5b7f7fffffffffffffffffffffffffffffff5d576e7357a4501ddfe92f46681b20a0815f1c1115610c02576040517f0658eabd00000000000000000000000000000000000000000000000000000000815260040160405180910390fd5b5f8686604051602001610c169291906116d5565b6040516020818303038152906040528051906020012090505f610c3b82868686610d55565b90505f73ffffffffffffffffffffffffffffffffffffffff168173ffffffffffffffffffffffffffffffffffffffff161480610ca357508573ffffffffffffffffffffffffffffffffffffffff168173ffffffffffffffffffffffffffffffffffffffff1614155b15610cda576040517f8baa579f00000000000000000000000000000000000000000000000000000000815260040160405180910390fd5b5050505050505050565b610cf2848484846001610dac565b610d3357836040517f5274afe7000000000000000000000000000000000000000000000000000000008152600401610d2a9190611019565b60405180910390fd5b50505050565b5f6002610d4c610d47610a48565b610a71565b5f015414905090565b5f6001858585856040515f8152602001604052604051610d78949392919061171a565b6020604051602081039080840390855afa158015610d98573d5f5f3e3d5ffd5b505050602060405103519050949350505050565b5f5f6323b872dd60e01b9050604051815f525f1960601c87166004525f1960601c86166024528460445260205f60645f5f8c5af1925060015f51148316610e0a578383151615610dfe573d5f823e3d81fd5b5f883b113d1516831692505b806040525f606052505095945050505050565b5f819050919050565b610e2f81610e1d565b82525050565b5f602082019050610e485f830184610e26565b92915050565b5f604051905090565b5f5ffd5b5f5ffd5b5f60408284031215610e7457610e73610e5b565b5b81905092915050565b5f6101408284031215610e9357610e92610e5b565b5b81905092915050565b5f60608284031215610eb157610eb0610e5b565b5b81905092915050565b5f5f5f6101e08486031215610ed257610ed1610e57565b5b5f610edf86828701610e5f565b9350506040610ef086828701610e7d565b925050610180610f0286828701610e9c565b9150509250925092565b5f73ffffffffffffffffffffffffffffffffffffffff82169050919050565b5f610f3582610f0c565b9050919050565b610f4581610f2b565b8114610f4f575f5ffd5b50565b5f81359050610f6081610f3c565b92915050565b5f819050919050565b610f7881610f66565b8114610f82575f5ffd5b50565b5f81359050610f9381610f6f565b92915050565b5f5f60408385031215610faf57610fae610e57565b5b5f610fbc85828601610f52565b9250506020610fcd85828601610f85565b9150509250929050565b5f8115159050919050565b610feb81610fd7565b82525050565b5f6020820190506110045f830184610fe2565b92915050565b61101381610f2b565b82525050565b5f60208201905061102c5f83018461100a565b92915050565b61103b81610f66565b82525050565b5f6020820190506110545f830184611032565b92915050565b5f6020828403121561106f5761106e610e57565b5b5f61107c84828501610f52565b91505092915050565b5f5ffd5b5f601f19601f8301169050919050565b7f4e487b71000000000000000000000000000000000000000000000000000000005f52604160045260245ffd5b6110cf82611089565b810181811067ffffffffffffffff821117156110ee576110ed611099565b5b80604052505050565b5f611100610e4e565b905061110c82826110c6565b919050565b6003811061111d575f5ffd5b50565b5f8135905061112e81611111565b92915050565b61113d81610fd7565b8114611147575f5ffd5b50565b5f8135905061115881611134565b92915050565b5f67ffffffffffffffff82169050919050565b61117a8161115e565b8114611184575f5ffd5b50565b5f8135905061119581611171565b92915050565b5f61014082840312156111b1576111b0611085565b5b6111bc6101406110f7565b90505f6111cb84828501611120565b5f8301525060206111de8482850161114a565b60208301525060406111f284828501610f52565b604083015250606061120684828501610f85565b606083015250608061121a84828501610f52565b60808301525060a061122e84828501610f85565b60a08301525060c061124284828501610f52565b60c08301525060e061125684828501611187565b60e08301525061010061126b84828501611187565b6101008301525061012061128184828501610f85565b6101208301525092915050565b5f61014082840312156112a4576112a3610e57565b5b5f6112b18482850161119b565b91505092915050565b5f602082840312156112cf576112ce610e57565b5b5f6112dc8482850161114a565b91505092915050565b5f60ff82169050919050565b6112fa816112e5565b8114611304575f5ffd5b50565b5f81359050611315816112f1565b92915050565b5f602082840312156113305761132f610e57565b5b5f61133d84828501611307565b91505092915050565b5f6020828403121561135b5761135a610e57565b5b5f61136884828501611187565b91505092915050565b7f4e487b71000000000000000000000000000000000000000000000000000000005f52602160045260245ffd5b7f4e487b71000000000000000000000000000000000000000000000000000000005f52601160045260245ffd5b5f6113d582610f66565b91506113e083610f66565b92508282026113ee81610f66565b915082820484148315176114055761140461139e565b5b5092915050565b7f4e487b71000000000000000000000000000000000000000000000000000000005f52601260045260245ffd5b5f61144382610f66565b915061144e83610f66565b92508261145e5761145d61140c565b5b828204905092915050565b5f61147382610f66565b915061147e83610f66565b92508282039050818111156114965761149561139e565b5b92915050565b5f7fffffffff0000000000000000000000000000000000000000000000000000000082169050919050565b6114d08161149c565b82525050565b5f6020820190506114e95f8301846114c7565b92915050565b5f815190506114fd81611134565b92915050565b5f6020828403121561151857611517610e57565b5b5f611525848285016114ef565b91505092915050565b5f6060820190506115415f83018661100a565b61154e602083018561100a565b61155b6040830184611032565b949350505050565b6003811061157457611573611371565b5b50565b5f81905061158482611563565b919050565b5f61159382611577565b9050919050565b6115a381611589565b82525050565b6115b28161115e565b82525050565b5f610160820190506115cc5f83018e610e26565b6115d9602083018d61159a565b6115e6604083018c610fe2565b6115f3606083018b61100a565b611600608083018a611032565b61160d60a083018961100a565b61161a60c0830188611032565b61162760e083018761100a565b6116356101008301866115a9565b6116436101208301856115a9565b611651610140830184611032565b9c9b505050505050505050505050565b5f81905092915050565b7f19010000000000000000000000000000000000000000000000000000000000005f82015250565b5f61169f600283611661565b91506116aa8261166b565b600282019050919050565b5f819050919050565b6116cf6116ca82610e1d565b6116b5565b82525050565b5f6116df82611693565b91506116eb82856116be565b6020820191506116fb82846116be565b6020820191508190509392505050565b611714816112e5565b82525050565b5f60808201905061172d5f830187610e26565b61173a602083018661170b565b6117476040830185610e26565b6117546060830184610e26565b9594505050505056fea2646970667358221220bc31ee7ce5098c48e33750c1bcc0a006b12a6f9c4ae23ea0da8045e50d26145764736f6c634300081e0033","linkReferences":{}},"methodIdentifiers":{"DOMAIN_SEPARATOR()":"3644e515","PROTOCOL_FEE_BPS()":"be378228","WETH()":"ad5c4648","isUserOrderNonceInvalid(address,uint256)":"63fbb4d5","protocolFeeRecipient()":"64df049e","settle((uint256,address),(uint8,bool,address,uint256,address,uint256,address,uint64,uint64,uint256),(uint8,bytes32,bytes32))":"3bae3e79"},"id":1}