{"abi":[{"type":"constructor","inputs":[{"name":"weth","type":"address","internalType":"address"},{"name":"feeReceiver","type":"address","internalType":"address"}],"stateMutability":"nonpayable"},{"type":"function","name":"DOMAIN_SEPARATOR","inputs":[],"outputs":[{"name":"","type":"bytes32","internalType":"bytes32"}],"stateMutability":"view"},{"type":"function","name":"PROTOCOL_FEE_BPS","inputs":[],"outputs":[{"name":"","type":"uint256","internalType":"uint256"}],"stateMutability":"view"},{"type":"function","name":"WETH","inputs":[],"outputs":[{"name":"","type":"address","internalType":"address"}],"stateMutability":"view"},{"type":"function","name":"protocolFeeReceiver","inputs":[],"outputs":[{"name":"","type":"address","internalType":"address"}],"stateMutability":"view"},{"type":"function","name":"settle","inputs":[{"name":"fill","type":"tuple","internalType":"struct OrderActs.Fill","components":[{"name":"actor","type":"address","internalType":"address"},{"name":"tokenId","type":"uint256","internalType":"uint256"}]},{"name":"order","type":"tuple","internalType":"struct OrderActs.Order","components":[{"name":"side","type":"uint8","internalType":"enum OrderActs.Side"},{"name":"actor","type":"address","internalType":"address"},{"name":"isCollectionBid","type":"bool","internalType":"bool"},{"name":"collection","type":"address","internalType":"address"},{"name":"tokenId","type":"uint256","internalType":"uint256"},{"name":"price","type":"uint256","internalType":"uint256"},{"name":"currency","type":"address","internalType":"address"},{"name":"start","type":"uint64","internalType":"uint64"},{"name":"end","type":"uint64","internalType":"uint64"},{"name":"nonce","type":"uint256","internalType":"uint256"}]},{"name":"sig","type":"tuple","internalType":"struct SignatureOps.Signature","components":[{"name":"v","type":"uint8","internalType":"uint8"},{"name":"r","type":"bytes32","internalType":"bytes32"},{"name":"s","type":"bytes32","internalType":"bytes32"}]}],"outputs":[],"stateMutability":"payable"},{"type":"error","name":"ContractSignerUnsupported","inputs":[]},{"type":"error","name":"CurrencyNotWhitelisted","inputs":[]},{"type":"error","name":"InvalidNonce","inputs":[]},{"type":"error","name":"InvalidSParameter","inputs":[]},{"type":"error","name":"InvalidSignature","inputs":[]},{"type":"error","name":"InvalidYParity","inputs":[]},{"type":"error","name":"ReentrancyGuardReentrantCall","inputs":[]},{"type":"error","name":"SafeERC20FailedOperation","inputs":[{"name":"token","type":"address","internalType":"address"}]},{"type":"error","name":"UnauthorizedFillActor","inputs":[]},{"type":"error","name":"UnsupportedCollection","inputs":[]},{"type":"error","name":"ZeroActor","inputs":[]}],"bytecode":{"object":"0x60e0604052600160c090815250348015610017575f5ffd5b50604051611850380380611850833981810160405281019061003991906101fd565b600161005761004c61016d60201b60201c565b61019660201b60201c565b5f01819055507f8b73c3c69bb8fe3d512ecc4cf759cc79239f7b179b0ffacaa9a75d522b39400f7f997dc85543e54e3a10f066eed263ff8d0cbf9f87e862f32fce17b110cadc23f27f044852b2a670ade5407e78fb2863c51de9fcb96542a07186fe3aeda6bb8a116d46306040516020016100d6959493929190610316565b60405160208183030381529060405280519060200120608081815250508173ffffffffffffffffffffffffffffffffffffffff1660a08173ffffffffffffffffffffffffffffffffffffffff1681525050805f5f6101000a81548173ffffffffffffffffffffffffffffffffffffffff021916908373ffffffffffffffffffffffffffffffffffffffff1602179055505050610367565b5f7f9b779b17422d0df92223018b32b4d1fa46e071723d6817e2486d003becc55f005f1b905090565b5f819050919050565b5f5ffd5b5f73ffffffffffffffffffffffffffffffffffffffff82169050919050565b5f6101cc826101a3565b9050919050565b6101dc816101c2565b81146101e6575f5ffd5b50565b5f815190506101f7816101d3565b92915050565b5f5f604083850312156102135761021261019f565b5b5f610220858286016101e9565b9250506020610231858286016101e9565b9150509250929050565b5f819050919050565b5f819050919050565b5f819050919050565b5f61027061026b6102668461023b565b61024d565b610244565b9050919050565b61028081610256565b82525050565b5f819050919050565b5f6102a96102a461029f84610286565b61024d565b610244565b9050919050565b6102b98161028f565b82525050565b5f819050919050565b5f6102e26102dd6102d8846102bf565b61024d565b610244565b9050919050565b6102f2816102c8565b82525050565b61030181610244565b82525050565b610310816101c2565b82525050565b5f60a0820190506103295f830188610277565b61033660208301876102b0565b61034360408301866102e9565b61035060608301856102f8565b61035d6080830184610307565b9695505050505050565b60805160a05160c0516114aa6103a65f395f818161033401526105c001525f818161031001526104c401525f8181610113015261055e01526114aa5ff3fe608060405260043610610049575f3560e01c80633644e5151461004d57806339a51be5146100775780633f9cb28e146100a1578063ad5c4648146100bd578063be378228146100e7575b5f5ffd5b348015610058575f5ffd5b50610061610111565b60405161006e9190610bf9565b60405180910390f35b348015610082575f5ffd5b5061008b610135565b6040516100989190610c51565b60405180910390f35b6100bb60048036038101906100b69190610cd6565b610159565b005b3480156100c8575f5ffd5b506100d161030e565b6040516100de9190610c51565b60405180910390f35b3480156100f2575f5ffd5b506100fb610332565b6040516101089190610d40565b60405180910390f35b7f000000000000000000000000000000000000000000000000000000000000000081565b5f5f9054906101000a900473ffffffffffffffffffffffffffffffffffffffff1681565b610161610356565b825f0160208101906101739190610d83565b73ffffffffffffffffffffffffffffffffffffffff163373ffffffffffffffffffffffffffffffffffffffff16146101d7576040517fc2b1dce200000000000000000000000000000000000000000000000000000000815260040160405180910390fd5b5f5f5f6101e384610378565b9250925092506101f5858484846103a4565b5f856080013590506001805f8860200160208101906102149190610d83565b73ffffffffffffffffffffffffffffffffffffffff1673ffffffffffffffffffffffffffffffffffffffff1681526020019081526020015f205f88610120013581526020019081526020015f205f6101000a81548160ff0219169083151502179055506102bc8660c001602081019061028d9190610d83565b8760a00135895f0160208101906102a49190610d83565b8960200160208101906102b79190610d83565b6105b7565b6102fd8660600160208101906102d29190610d83565b885f0160208101906102e49190610d83565b8860200160208101906102f79190610d83565b84610686565b505050506103096107b1565b505050565b7f000000000000000000000000000000000000000000000000000000000000000081565b7f000000000000000000000000000000000000000000000000000000000000000081565b61035e6107cb565b600261037061036b61080c565b610835565b5f0181905550565b5f5f5f835f01602081019061038d9190610de4565b846020013585604001359250925092509193909250565b5f73ffffffffffffffffffffffffffffffffffffffff168460200160208101906103ce9190610d83565b73ffffffffffffffffffffffffffffffffffffffff160361041b576040517fb1375a3d00000000000000000000000000000000000000000000000000000000815260040160405180910390fd5b60015f8560200160208101906104319190610d83565b73ffffffffffffffffffffffffffffffffffffffff1673ffffffffffffffffffffffffffffffffffffffff1681526020019081526020015f205f85610120013581526020019081526020015f205f9054906101000a900460ff16156104c2576040517f756688fe00000000000000000000000000000000000000000000000000000000815260040160405180910390fd5b7f000000000000000000000000000000000000000000000000000000000000000073ffffffffffffffffffffffffffffffffffffffff168460c001602081019061050c9190610d83565b73ffffffffffffffffffffffffffffffffffffffff1614610559576040517f5f6063cc00000000000000000000000000000000000000000000000000000000815260040160405180910390fd5b6105b17f000000000000000000000000000000000000000000000000000000000000000061059686803603810190610591919061104d565b61083e565b8660200160208101906105a99190610d83565b8686866108ca565b50505050565b5f8390505f60647f0000000000000000000000000000000000000000000000000000000000000000866105ea91906110a6565b6105f49190611114565b9050610643845f5f9054906101000a900473ffffffffffffffffffffffffffffffffffffffff16838973ffffffffffffffffffffffffffffffffffffffff16610aa8909392919063ffffffff16565b808261064f9190611144565b91505061067f8383838873ffffffffffffffffffffffffffffffffffffffff16610aa8909392919063ffffffff16565b5050505050565b8373ffffffffffffffffffffffffffffffffffffffff166301ffc9a76380ac58cd60e01b6040518263ffffffff1660e01b81526004016106c691906111b1565b602060405180830381865afa1580156106e1573d5f5f3e3d5ffd5b505050506040513d601f19601f8201168201806040525081019061070591906111de565b15610779578373ffffffffffffffffffffffffffffffffffffffff166342842e0e8484846040518463ffffffff1660e01b815260040161074793929190611209565b5f604051808303815f87803b15801561075e575f5ffd5b505af1158015610770573d5f5f3e3d5ffd5b505050506107ab565b6040517f0179a91700000000000000000000000000000000000000000000000000000000815260040160405180910390fd5b50505050565b60016107c36107be61080c565b610835565b5f0181905550565b6107d3610afd565b1561080a576040517f3ee5aeb500000000000000000000000000000000000000000000000000000000815260040160405180910390fd5b565b5f7f9b779b17422d0df92223018b32b4d1fa46e071723d6817e2486d003becc55f005f1b905090565b5f819050919050565b5f7f60ee8275a0ebcf68c310f721d23f781ff9ae32ac166c160ad7c7bc5f8902888082602001518360400151846060015185608001518660a001518760c00151885f01518960e001518a61010001518b61012001516040516020016108ad9b9a999897969594939291906112cf565b604051602081830303815290604052805190602001209050919050565b5f8473ffffffffffffffffffffffffffffffffffffffff163b111561091b576040517faa1742fe00000000000000000000000000000000000000000000000000000000815260040160405180910390fd5b601b8360ff16141580156109335750601c8360ff1614155b1561096a576040517f541b3bce00000000000000000000000000000000000000000000000000000000815260040160405180910390fd5b7f7fffffffffffffffffffffffffffffff5d576e7357a4501ddfe92f46681b20a0815f1c11156109c6576040517f0658eabd00000000000000000000000000000000000000000000000000000000815260040160405180910390fd5b5f86866040516020016109da9291906113ec565b6040516020818303038152906040528051906020012090505f6109ff82868686610b19565b90505f73ffffffffffffffffffffffffffffffffffffffff168173ffffffffffffffffffffffffffffffffffffffff161480610a6757508573ffffffffffffffffffffffffffffffffffffffff168173ffffffffffffffffffffffffffffffffffffffff1614155b15610a9e576040517f8baa579f00000000000000000000000000000000000000000000000000000000815260040160405180910390fd5b5050505050505050565b610ab6848484846001610b70565b610af757836040517f5274afe7000000000000000000000000000000000000000000000000000000008152600401610aee9190610c51565b60405180910390fd5b50505050565b5f6002610b10610b0b61080c565b610835565b5f015414905090565b5f6001858585856040515f8152602001604052604051610b3c9493929190611431565b6020604051602081039080840390855afa158015610b5c573d5f5f3e3d5ffd5b505050602060405103519050949350505050565b5f5f6323b872dd60e01b9050604051815f525f1960601c87166004525f1960601c86166024528460445260205f60645f5f8c5af1925060015f51148316610bce578383151615610bc2573d5f823e3d81fd5b5f883b113d1516831692505b806040525f606052505095945050505050565b5f819050919050565b610bf381610be1565b82525050565b5f602082019050610c0c5f830184610bea565b92915050565b5f73ffffffffffffffffffffffffffffffffffffffff82169050919050565b5f610c3b82610c12565b9050919050565b610c4b81610c31565b82525050565b5f602082019050610c645f830184610c42565b92915050565b5f604051905090565b5f5ffd5b5f5ffd5b5f60408284031215610c9057610c8f610c77565b5b81905092915050565b5f6101408284031215610caf57610cae610c77565b5b81905092915050565b5f60608284031215610ccd57610ccc610c77565b5b81905092915050565b5f5f5f6101e08486031215610cee57610ced610c73565b5b5f610cfb86828701610c7b565b9350506040610d0c86828701610c99565b925050610180610d1e86828701610cb8565b9150509250925092565b5f819050919050565b610d3a81610d28565b82525050565b5f602082019050610d535f830184610d31565b92915050565b610d6281610c31565b8114610d6c575f5ffd5b50565b5f81359050610d7d81610d59565b92915050565b5f60208284031215610d9857610d97610c73565b5b5f610da584828501610d6f565b91505092915050565b5f60ff82169050919050565b610dc381610dae565b8114610dcd575f5ffd5b50565b5f81359050610dde81610dba565b92915050565b5f60208284031215610df957610df8610c73565b5b5f610e0684828501610dd0565b91505092915050565b5f5ffd5b5f601f19601f8301169050919050565b7f4e487b71000000000000000000000000000000000000000000000000000000005f52604160045260245ffd5b610e5982610e13565b810181811067ffffffffffffffff82111715610e7857610e77610e23565b5b80604052505050565b5f610e8a610c6a565b9050610e968282610e50565b919050565b60028110610ea7575f5ffd5b50565b5f81359050610eb881610e9b565b92915050565b5f8115159050919050565b610ed281610ebe565b8114610edc575f5ffd5b50565b5f81359050610eed81610ec9565b92915050565b610efc81610d28565b8114610f06575f5ffd5b50565b5f81359050610f1781610ef3565b92915050565b5f67ffffffffffffffff82169050919050565b610f3981610f1d565b8114610f43575f5ffd5b50565b5f81359050610f5481610f30565b92915050565b5f6101408284031215610f7057610f6f610e0f565b5b610f7b610140610e81565b90505f610f8a84828501610eaa565b5f830152506020610f9d84828501610d6f565b6020830152506040610fb184828501610edf565b6040830152506060610fc584828501610d6f565b6060830152506080610fd984828501610f09565b60808301525060a0610fed84828501610f09565b60a08301525060c061100184828501610d6f565b60c08301525060e061101584828501610f46565b60e08301525061010061102a84828501610f46565b6101008301525061012061104084828501610f09565b6101208301525092915050565b5f610140828403121561106357611062610c73565b5b5f61107084828501610f5a565b91505092915050565b7f4e487b71000000000000000000000000000000000000000000000000000000005f52601160045260245ffd5b5f6110b082610d28565b91506110bb83610d28565b92508282026110c981610d28565b915082820484148315176110e0576110df611079565b5b5092915050565b7f4e487b71000000000000000000000000000000000000000000000000000000005f52601260045260245ffd5b5f61111e82610d28565b915061112983610d28565b925082611139576111386110e7565b5b828204905092915050565b5f61114e82610d28565b915061115983610d28565b925082820390508181111561117157611170611079565b5b92915050565b5f7fffffffff0000000000000000000000000000000000000000000000000000000082169050919050565b6111ab81611177565b82525050565b5f6020820190506111c45f8301846111a2565b92915050565b5f815190506111d881610ec9565b92915050565b5f602082840312156111f3576111f2610c73565b5b5f611200848285016111ca565b91505092915050565b5f60608201905061121c5f830186610c42565b6112296020830185610c42565b6112366040830184610d31565b949350505050565b61124781610ebe565b82525050565b7f4e487b71000000000000000000000000000000000000000000000000000000005f52602160045260245ffd5b6002811061128b5761128a61124d565b5b50565b5f81905061129b8261127a565b919050565b5f6112aa8261128e565b9050919050565b6112ba816112a0565b82525050565b6112c981610f1d565b82525050565b5f610160820190506112e35f83018e610bea565b6112f0602083018d610c42565b6112fd604083018c61123e565b61130a606083018b610c42565b611317608083018a610d31565b61132460a0830189610d31565b61133160c0830188610c42565b61133e60e08301876112b1565b61134c6101008301866112c0565b61135a6101208301856112c0565b611368610140830184610d31565b9c9b505050505050505050505050565b5f81905092915050565b7f19010000000000000000000000000000000000000000000000000000000000005f82015250565b5f6113b6600283611378565b91506113c182611382565b600282019050919050565b5f819050919050565b6113e66113e182610be1565b6113cc565b82525050565b5f6113f6826113aa565b915061140282856113d5565b60208201915061141282846113d5565b6020820191508190509392505050565b61142b81610dae565b82525050565b5f6080820190506114445f830187610bea565b6114516020830186611422565b61145e6040830185610bea565b61146b6060830184610bea565b9594505050505056fea26469706673582212203637fe5f70c656ec7293b0d1dcd918991f164ee12bc64cd6d88c41618bb3f9d464736f6c634300081e0033","linkReferences":{}},"methodIdentifiers":{"DOMAIN_SEPARATOR()":"3644e515","PROTOCOL_FEE_BPS()":"be378228","WETH()":"ad5c4648","protocolFeeReceiver()":"39a51be5","settle((address,uint256),(uint8,address,bool,address,uint256,uint256,address,uint64,uint64,uint256),(uint8,bytes32,bytes32))":"3f9cb28e"},"id":2}