{"abi":[{"type":"constructor","inputs":[],"stateMutability":"nonpayable"},{"type":"function","name":"DOMAIN_SEPARATOR","inputs":[],"outputs":[{"name":"","type":"bytes32","internalType":"bytes32"}],"stateMutability":"view"},{"type":"function","name":"WETH","inputs":[],"outputs":[{"name":"","type":"address","internalType":"address"}],"stateMutability":"view"},{"type":"function","name":"settle","inputs":[{"name":"fill","type":"tuple","internalType":"struct OrderActs.Fill","components":[{"name":"actor","type":"address","internalType":"address"},{"name":"tokenId","type":"uint256","internalType":"uint256"}]},{"name":"order","type":"tuple","internalType":"struct OrderActs.Order","components":[{"name":"side","type":"uint8","internalType":"enum OrderActs.Side"},{"name":"actor","type":"address","internalType":"address"},{"name":"isCollectionBid","type":"bool","internalType":"bool"},{"name":"collection","type":"address","internalType":"address"},{"name":"tokenId","type":"uint256","internalType":"uint256"},{"name":"price","type":"uint256","internalType":"uint256"},{"name":"currency","type":"address","internalType":"address"},{"name":"start","type":"uint64","internalType":"uint64"},{"name":"end","type":"uint64","internalType":"uint64"},{"name":"nonce","type":"uint256","internalType":"uint256"}]},{"name":"sig","type":"tuple","internalType":"struct SignatureOps.Signature","components":[{"name":"v","type":"uint8","internalType":"uint8"},{"name":"r","type":"bytes32","internalType":"bytes32"},{"name":"s","type":"bytes32","internalType":"bytes32"}]}],"outputs":[],"stateMutability":"payable"},{"type":"error","name":"ContractSignerUnsupported","inputs":[]},{"type":"error","name":"CurrencyNotWhitelisted","inputs":[]},{"type":"error","name":"InvalidNonce","inputs":[]},{"type":"error","name":"InvalidSParameter","inputs":[]},{"type":"error","name":"InvalidSignature","inputs":[]},{"type":"error","name":"InvalidYParity","inputs":[]},{"type":"error","name":"ReentrancyGuardReentrantCall","inputs":[]},{"type":"error","name":"UnauthorizedFillActor","inputs":[]},{"type":"error","name":"UnsupportedCollection","inputs":[]},{"type":"error","name":"ZeroActor","inputs":[]}],"bytecode":{"object":"0x60c060405234801561000f575f5ffd5b50600161002e61002361011760201b60201c565b61014060201b60201c565b5f01819055507f8b73c3c69bb8fe3d512ecc4cf759cc79239f7b179b0ffacaa9a75d522b39400f7f997dc85543e54e3a10f066eed263ff8d0cbf9f87e862f32fce17b110cadc23f27f044852b2a670ade5407e78fb2863c51de9fcb96542a07186fe3aeda6bb8a116d46306040516020016100ad959493929190610254565b604051602081830303815290604052805190602001206080818152505073c02aaa39b223fe8d0a0e5c4f27ead9083c756cc273ffffffffffffffffffffffffffffffffffffffff1660a08173ffffffffffffffffffffffffffffffffffffffff16815250506102a5565b5f7f9b779b17422d0df92223018b32b4d1fa46e071723d6817e2486d003becc55f005f1b905090565b5f819050919050565b5f819050919050565b5f819050919050565b5f819050919050565b5f61017e61017961017484610149565b61015b565b610152565b9050919050565b61018e81610164565b82525050565b5f819050919050565b5f6101b76101b26101ad84610194565b61015b565b610152565b9050919050565b6101c78161019d565b82525050565b5f819050919050565b5f6101f06101eb6101e6846101cd565b61015b565b610152565b9050919050565b610200816101d6565b82525050565b61020f81610152565b82525050565b5f73ffffffffffffffffffffffffffffffffffffffff82169050919050565b5f61023e82610215565b9050919050565b61024e81610234565b82525050565b5f60a0820190506102675f830188610185565b61027460208301876101be565b61028160408301866101f7565b61028e6060830185610206565b61029b6080830184610245565b9695505050505050565b60805160a0516111066102d35f395f818161023d01526103cc01525f818160a9015261046601526111065ff3fe608060405260043610610033575f3560e01c80633644e515146100375780633f9cb28e14610061578063ad5c46481461007d575b5f5ffd5b348015610042575f5ffd5b5061004b6100a7565b604051610058919061096c565b60405180910390f35b61007b600480360381019061007691906109f1565b6100cb565b005b348015610088575f5ffd5b5061009161023b565b60405161009e9190610a82565b60405180910390f35b7f000000000000000000000000000000000000000000000000000000000000000081565b6100d361025f565b825f0160208101906100e59190610ac5565b73ffffffffffffffffffffffffffffffffffffffff163373ffffffffffffffffffffffffffffffffffffffff1614610149576040517fc2b1dce200000000000000000000000000000000000000000000000000000000815260040160405180910390fd5b5f5f5f61015584610281565b925092509250610167858484846102ad565b5f8560800135905060015f5f8860200160208101906101869190610ac5565b73ffffffffffffffffffffffffffffffffffffffff1673ffffffffffffffffffffffffffffffffffffffff1681526020019081526020015f205f88610120013581526020019081526020015f205f6101000a81548160ff02191690831515021790555061022a8660600160208101906101ff9190610ac5565b885f0160208101906102119190610ac5565b8860200160208101906102249190610ac5565b846104bf565b505050506102366105ea565b505050565b7f000000000000000000000000000000000000000000000000000000000000000081565b610267610604565b6002610279610274610645565b61066e565b5f0181905550565b5f5f5f835f0160208101906102969190610b26565b846020013585604001359250925092509193909250565b5f73ffffffffffffffffffffffffffffffffffffffff168460200160208101906102d79190610ac5565b73ffffffffffffffffffffffffffffffffffffffff1603610324576040517fb1375a3d00000000000000000000000000000000000000000000000000000000815260040160405180910390fd5b5f5f8560200160208101906103399190610ac5565b73ffffffffffffffffffffffffffffffffffffffff1673ffffffffffffffffffffffffffffffffffffffff1681526020019081526020015f205f85610120013581526020019081526020015f205f9054906101000a900460ff16156103ca576040517f756688fe00000000000000000000000000000000000000000000000000000000815260040160405180910390fd5b7f000000000000000000000000000000000000000000000000000000000000000073ffffffffffffffffffffffffffffffffffffffff168460c00160208101906104149190610ac5565b73ffffffffffffffffffffffffffffffffffffffff1614610461576040517f5f6063cc00000000000000000000000000000000000000000000000000000000815260040160405180910390fd5b6104b97f000000000000000000000000000000000000000000000000000000000000000061049e868036038101906104999190610d98565b610677565b8660200160208101906104b19190610ac5565b868686610703565b50505050565b8373ffffffffffffffffffffffffffffffffffffffff166301ffc9a76380ac58cd60e01b6040518263ffffffff1660e01b81526004016104ff9190610dfe565b602060405180830381865afa15801561051a573d5f5f3e3d5ffd5b505050506040513d601f19601f8201168201806040525081019061053e9190610e2b565b156105b2578373ffffffffffffffffffffffffffffffffffffffff166342842e0e8484846040518463ffffffff1660e01b815260040161058093929190610e65565b5f604051808303815f87803b158015610597575f5ffd5b505af11580156105a9573d5f5f3e3d5ffd5b505050506105e4565b6040517f0179a91700000000000000000000000000000000000000000000000000000000815260040160405180910390fd5b50505050565b60016105fc6105f7610645565b61066e565b5f0181905550565b61060c6108e1565b15610643576040517f3ee5aeb500000000000000000000000000000000000000000000000000000000815260040160405180910390fd5b565b5f7f9b779b17422d0df92223018b32b4d1fa46e071723d6817e2486d003becc55f005f1b905090565b5f819050919050565b5f7f60ee8275a0ebcf68c310f721d23f781ff9ae32ac166c160ad7c7bc5f8902888082602001518360400151846060015185608001518660a001518760c00151885f01518960e001518a61010001518b61012001516040516020016106e69b9a99989796959493929190610f2b565b604051602081830303815290604052805190602001209050919050565b5f8473ffffffffffffffffffffffffffffffffffffffff163b1115610754576040517faa1742fe00000000000000000000000000000000000000000000000000000000815260040160405180910390fd5b601b8360ff161415801561076c5750601c8360ff1614155b156107a3576040517f541b3bce00000000000000000000000000000000000000000000000000000000815260040160405180910390fd5b7f7fffffffffffffffffffffffffffffff5d576e7357a4501ddfe92f46681b20a0815f1c11156107ff576040517f0658eabd00000000000000000000000000000000000000000000000000000000815260040160405180910390fd5b5f8686604051602001610813929190611048565b6040516020818303038152906040528051906020012090505f610838828686866108fd565b90505f73ffffffffffffffffffffffffffffffffffffffff168173ffffffffffffffffffffffffffffffffffffffff1614806108a057508573ffffffffffffffffffffffffffffffffffffffff168173ffffffffffffffffffffffffffffffffffffffff1614155b156108d7576040517f8baa579f00000000000000000000000000000000000000000000000000000000815260040160405180910390fd5b5050505050505050565b5f60026108f46108ef610645565b61066e565b5f015414905090565b5f6001858585856040515f8152602001604052604051610920949392919061108d565b6020604051602081039080840390855afa158015610940573d5f5f3e3d5ffd5b505050602060405103519050949350505050565b5f819050919050565b61096681610954565b82525050565b5f60208201905061097f5f83018461095d565b92915050565b5f604051905090565b5f5ffd5b5f5ffd5b5f604082840312156109ab576109aa610992565b5b81905092915050565b5f61014082840312156109ca576109c9610992565b5b81905092915050565b5f606082840312156109e8576109e7610992565b5b81905092915050565b5f5f5f6101e08486031215610a0957610a0861098e565b5b5f610a1686828701610996565b9350506040610a27868287016109b4565b925050610180610a39868287016109d3565b9150509250925092565b5f73ffffffffffffffffffffffffffffffffffffffff82169050919050565b5f610a6c82610a43565b9050919050565b610a7c81610a62565b82525050565b5f602082019050610a955f830184610a73565b92915050565b610aa481610a62565b8114610aae575f5ffd5b50565b5f81359050610abf81610a9b565b92915050565b5f60208284031215610ada57610ad961098e565b5b5f610ae784828501610ab1565b91505092915050565b5f60ff82169050919050565b610b0581610af0565b8114610b0f575f5ffd5b50565b5f81359050610b2081610afc565b92915050565b5f60208284031215610b3b57610b3a61098e565b5b5f610b4884828501610b12565b91505092915050565b5f5ffd5b5f601f19601f8301169050919050565b7f4e487b71000000000000000000000000000000000000000000000000000000005f52604160045260245ffd5b610b9b82610b55565b810181811067ffffffffffffffff82111715610bba57610bb9610b65565b5b80604052505050565b5f610bcc610985565b9050610bd88282610b92565b919050565b60028110610be9575f5ffd5b50565b5f81359050610bfa81610bdd565b92915050565b5f8115159050919050565b610c1481610c00565b8114610c1e575f5ffd5b50565b5f81359050610c2f81610c0b565b92915050565b5f819050919050565b610c4781610c35565b8114610c51575f5ffd5b50565b5f81359050610c6281610c3e565b92915050565b5f67ffffffffffffffff82169050919050565b610c8481610c68565b8114610c8e575f5ffd5b50565b5f81359050610c9f81610c7b565b92915050565b5f6101408284031215610cbb57610cba610b51565b5b610cc6610140610bc3565b90505f610cd584828501610bec565b5f830152506020610ce884828501610ab1565b6020830152506040610cfc84828501610c21565b6040830152506060610d1084828501610ab1565b6060830152506080610d2484828501610c54565b60808301525060a0610d3884828501610c54565b60a08301525060c0610d4c84828501610ab1565b60c08301525060e0610d6084828501610c91565b60e083015250610100610d7584828501610c91565b61010083015250610120610d8b84828501610c54565b6101208301525092915050565b5f6101408284031215610dae57610dad61098e565b5b5f610dbb84828501610ca5565b91505092915050565b5f7fffffffff0000000000000000000000000000000000000000000000000000000082169050919050565b610df881610dc4565b82525050565b5f602082019050610e115f830184610def565b92915050565b5f81519050610e2581610c0b565b92915050565b5f60208284031215610e4057610e3f61098e565b5b5f610e4d84828501610e17565b91505092915050565b610e5f81610c35565b82525050565b5f606082019050610e785f830186610a73565b610e856020830185610a73565b610e926040830184610e56565b949350505050565b610ea381610c00565b82525050565b7f4e487b71000000000000000000000000000000000000000000000000000000005f52602160045260245ffd5b60028110610ee757610ee6610ea9565b5b50565b5f819050610ef782610ed6565b919050565b5f610f0682610eea565b9050919050565b610f1681610efc565b82525050565b610f2581610c68565b82525050565b5f61016082019050610f3f5f83018e61095d565b610f4c602083018d610a73565b610f59604083018c610e9a565b610f66606083018b610a73565b610f73608083018a610e56565b610f8060a0830189610e56565b610f8d60c0830188610a73565b610f9a60e0830187610f0d565b610fa8610100830186610f1c565b610fb6610120830185610f1c565b610fc4610140830184610e56565b9c9b505050505050505050505050565b5f81905092915050565b7f19010000000000000000000000000000000000000000000000000000000000005f82015250565b5f611012600283610fd4565b915061101d82610fde565b600282019050919050565b5f819050919050565b61104261103d82610954565b611028565b82525050565b5f61105282611006565b915061105e8285611031565b60208201915061106e8284611031565b6020820191508190509392505050565b61108781610af0565b82525050565b5f6080820190506110a05f83018761095d565b6110ad602083018661107e565b6110ba604083018561095d565b6110c7606083018461095d565b9594505050505056fea2646970667358221220854980e94ddb50bbec15254aaaa8ec8868b23a14370089c162247a5c0e17960764736f6c634300081e0033","linkReferences":{}},"methodIdentifiers":{"DOMAIN_SEPARATOR()":"3644e515","WETH()":"ad5c4648","settle((address,uint256),(uint8,address,bool,address,uint256,uint256,address,uint64,uint64,uint256),(uint8,bytes32,bytes32))":"3f9cb28e"},"id":2}